:020000040000FA
:0400000006EF00F017
:020008001000E6
:10000C001CD802D80300FED7016A026A200E036EC8
:10001C00046A03C0F8FF02C0F7FF01C0F6FF7F8E31
:10002C007F9C7F887F84550E7E6EAA0E7E6E7F82AB
:10003C007F94F86AF76AF66A1200D38CD38AD38855
:10004C009B8CE06AF86AC09EC2900F015D955D972B
:10005C005D995D9B5D9D5D9F5C915C935C955C97F0
:10006C005C995C9B5C9D806A816A826A836A846A03
:08007C00856A866A000112008A
:020000040030CA
:0E00000015087F7CFF0F91FF0FC00FE00F402F
:00000001FF
