:020000040000FA
:0400000006EF00F017
:020008001000E6
:10000C001CD802D80300FED7016A026A200E036EC8
:10001C00046A03C0F8FF02C0F7FF01C0F6FF7F8E31
:10002C007F9C7F887F84550E7E6EAA0E7E6E7F82AB
:10003C007F94F86AF76AF66A1200D38CD38AD38855
:10004C009B8CE06AF86AC09EC2900F01259525979B
:10005C002599259B259D259F2491249324952497B0
:10006C002499249B249D249F806A816A826A836AD6
:0E007C00846A856A866A876A886A00011200B3
:020000040030CA
:0E00000015087F7CF90B91FFFFC0FFE0FF4069
:00000001FF
