:020000040000FA
:1000000004020400000000000002000000020000E2
:1000100000020000000200000002000000020000D8
:1000200000020000000200000002000000020000C8
:100030000002000054050000000200000002000061
:10004000000200006E0500006205000000020000D2
:100050000002000000020000000200000002000098
:10006000000200002E0D000000020000000200004F
:10007000F005000000020000000200000002000085
:100080000002000000020000000200000002000068
:1000900000020000600600000002000000020000F4
:1000A000300C00002A0D00000002000000020000D9
:1000B0000002000000020000000200000002000038
:1000C0000002000000020000000200000002000028
:1000D0000002000000020000000200000002000018
:1000E0000002000000020000000200000002000008
:1000F00000020000000200000002000000020000F8
:1001000000020000000200000002000000020000E7
:1001100000020000000200000002000000020000D7
:1001200000020000000200000002000000020000C7
:1001300000020000000200000002000000020000B7
:1001400000020000000200000002000000020000A7
:100150000002000000020000000200000002000097
:100160000002000000020000000200000002000087
:100170000002000000020000000200000002000077
:100180000002000000020000000200000002000067
:100190000002000000020000000200000002000057
:1001A0000002000000020000000200000002000047
:1001B0000002000000020000000200000002000037
:1001C0000002000000020000000200000002000027
:1001D0000002000000020000000200000002000017
:1001E0000002000000020000000200000002000007
:1001F00000020000000200000002000000020000F7
:10020000FFFFFF00FFFFFF000002000000020000F0
:1002100000020000000200000002000000020000D6
:1002200000020000000200000002000000020000C6
:10023000000200005405000000020000000200005F
:10024000000200006E0500006205000000020000D0
:100250000002000000020000000200000002000096
:10026000000200002E0D000000020000000200004D
:10027000F005000000020000000200000002000083
:100280000002000000020000000200000002000066
:1002900000020000600600000002000000020000F2
:1002A000300C00002A0D00000002000000020000D7
:1002B0000002000000020000000200000002000036
:1002C0000002000000020000000200000002000026
:1002D0000002000000020000000200000002000016
:1002E0000002000000020000000200000002000006
:1002F00000020000000200000002000000020000F6
:1003000000020000000200000002000000020000E5
:1003100000020000000200000002000000020000D5
:1003200000020000000200000002000000020000C5
:1003300000020000000200000002000000020000B5
:1003400000020000000200000002000000020000A5
:100350000002000000020000000200000002000095
:100360000002000000020000000200000002000085
:100370000002000000020000000200000002000075
:100380000002000000020000000200000002000065
:100390000002000000020000000200000002000055
:1003A0000002000000020000000200000002000045
:1003B0000002000000020000000200000002000035
:1003C0000002000000020000000200000002000025
:1003D0000002000000020000000200000002000015
:1003E0000002000000020000000200000002000005
:1003F00000020000000200000002000000020000F5
:100400000040DA000000FE000060FE005220EF0015
:1004100000102100103A880000002000203A8800D7
:100420000FA0200080BF2000000188000000000015
:10043000800C2000E30309000000E0000060FE00E3
:100440000000E900FBFF3A00200020002016880091
:100450000004200060168800C000200000278800EB
:10046000C0002C0010278800C00020000016880063
:10047000E0082C00401688006EA0A80070E0A800DC
:100480000060FE0001802000E01860000180A600EE
:10049000FDFF3700480502000000000000032000B7
:1004A000200888009460A900A0042000500888005B
:1004B00094E0A900000F2000800888009500A900A2
:1004C00050002000B0088800700C2000A0088800B0
:1004D0008760A9009760A90000082000C00C880070
:1004E000C0002000800C880000002000B00C8800B4
:1004F00010002000E009880000012000D00C8800D6
:1005000010052A00B0318800F008200090318800E2
:1005100000002000101988001060200020198800B9
:10052000100E280000198800F00C2000C01188006F
:1005300080002A008011880000512000901188005E
:1005400087C0A90097C0A80087E0A90097E0A9008C
:1005500081E0A800B1C0A800B1A0A800B180A900A6
:100560000060FE00A00A2000504488004440A8001B
:10057000F00F2000A001880000F8870010448800D8
:100580000000D100304488000000D1008628B4006B
:100590004400DE002044880010F887007041880085
:1005A0004200DE000042880020F887008041880079
:1005B000604088005040880030F8870090418800F3
:1005C0003008B5000000D1000000D1000080B0006C
:1005D0005043880040F88700A04188009041800087
:1005E0003408B5000000D1000000D1000080B00048
:1005F0006043880050F88700B04188009041800037
:100600003608B5000000D1000000D1000080B00025
:100610007043880060F88700C041880070F8870048
:10062000D041880080F88700E041880090F887007A
:10063000F0418800A0F8870010428800B0F88700D9
:1006400020428800E0F8870090428800F0F8870098
:10065000A0428800C0F88700A043880000F9870006
:100660004044880010F98700C042880020F98700C4
:10067000B042880030F987006044880071418000F2
:100680000100B8004500DE0000428800D0F8870075
:10069000B0408800403A880040F9870090448800C4
:1006A00050F98700A044880000002000A0018800C5
:1006B00020C42800804288000028EF00803E2000EF
:1006C0007044880070E0A80000202000D04288001C
:1006D000CAE2AF0005003700C422A900CDA2A800DD
:1006E0000060FE00CAE2AE00FDFF3700E093240088
:1006F000100888000021EF008460A90005E1A8002F
:100700000060FE008460AE00FDFF370005E1A90037
:1007100040002000401988001228EF00F05520000A
:10072000100888000021EF008460A90005E1A800FE
:10073000E028EF000060FE008460AF000900370091
:100740002023A8002003A9002003AE00FEFF3700ED
:10075000001880001208E300F6FF3E009040880079
:10076000F4FF370005E1A9008460A90090408000F3
:100770009208E30015003E005408E30002003E002A
:100780005608E3004E003E0000478800C422AE0039
:100790002A003700C402A900CD82AA00E0932400F9
:1007A000100888000021EF008460A90005E1A8007E
:1007B0000060FE008460AE00FDFF370070E0A8001E
:1007C000CAE2AF00D2FF37001C003700CD82A9007B
:1007D000C422AE0019003700C402A90070E0A800CE
:1007E000CAE2AE00150037009408E30086003E0020
:1007F000F0552000100888000021EF009460A90047
:100800009640A9008460A9003726A9008640A90067
:1008100005E1A8000060FE008460AE00FDFF370027
:1008200005E1A9008460A9003726AE0076003700F4
:100830003726A9008640A900B5FF3700C00D2F005C
:10084000600888001001A8008500A9009500A80094
:10085000CD02A8001228EF003044800060418800DB
:10086000804088004200DE0050418800204088001F
:100870000008A8000028A900C402A900CD82A90090
:100880000228EF008460A90084E0A9008760A90025
:100890003726A9008640A90087C0A9009460A90056
:1008A00094E0A9009760A8009640A80097C0A8000F
:1008B000C422A900CDA2A80098E1A9002B0037000E
:1008C0000060FE003706AF00FDFF3700C402A8003D
:1008D0001228EF0090428000A000B000A0408800E5
:1008E000B0042000400888000621EF0084E0A90041
:1008F0000A41A8000060FE0084E0AE00FDFF370062
:100900000A41A9000008A9000028A80000C8A80002
:10091000CD82A800CD02A9000228EF002828EF0010
:1009200010448000504188008460A90084E0A90040
:100930008500A9008760A9003726A9008640A90084
:1009400087C0A9009460A90094E0A9009500A900BF
:100950009760A8009640A80097C0A800C422A800ED
:10096000CDA2A90098E1A9000000370070E0A8001E
:100970000060FE00CAE2AE00FCFF370070E0A80095
:100980000060FE00CAE2AF00FCFF3700CD02A90004
:10099000403E2F00600888001001A8008500A900D3
:1009A00070E0A8000060FE00CAE2AF00F3FF37006D
:1009B0008500AE00FAFF37000008AF0012003700D4
:1009C000C422AA0000000000000000000000000097
:1009D000C422AF0002003700CDA2A80001003700FA
:1009E000CDA2A900C00D2F00C422AF0050B72F0028
:1009F000600888001001A8008500A9009500A800E3
:100A0000CD02A800D9FF3700000000000000000060
:100A1000000000009760A9009640A9009460A9001A
:100A200094E0A9009500A90097C0A90097E0A9004B
:100A300098E1A8009021EF009221EF00C4C2A90024
:100A4000CD62A900C4E2A900C482A900CC82A90099
:100A5000CDA2A900CD82A900CD02A80050B72F00D9
:100A6000600888001001A8008500A900C402A90040
:100A7000C422A8000060FE008500AE00FDFF370024
:100A8000CD02A9000060FE00CCC2A900FDFF370026
:100A90000007EB000D000900001FEB000007EB0052
:100AA00000000600FFFF37008460A90005E1A900EF
:100AB0009460A90000A8A9000008AF00CD82A90099
:100AC000004006008500A9001001A9009500A900BA
:100AD000CD02A9000048A9000040060000A0FE00C9
:100AE00084E0A9000008AF002D0037000128AE0007
:100AF000080037000228EF00600920003008880055
:100B00000128A9003726A9008640A9000080FE0020
:100B1000004006003706AF001B00370000A8AF00FA
:100B200019003700C402A900C422AF002602370012
:100B3000CDA2A800CD82A9000008A8003044800002
:100B40002040880060418800804088000068AE0036
:100B500098E1A90000A8A800007D200010088800E6
:100B60000021EF0005E1A8008460A9009460A800BE
:100B7000C00D2F00600888001001A8008500A900A2
:100B80009500A800CD02A8000A41A90094E0A900A0
:100B90003726A9008640A9000080FE00004006001C
:100BA0000A41A90094E0A90000A8AF0006003700A0
:100BB0003706AE00040037003726A9008640A9009A
:100BC0000080FE0000400600B0408000403A8800EF
:100BD0003726A9008640A9000080FE0000400600DC
:100BE00000A0FE003726A9008640A9000008AF003B
:100BF0002B00370010408000104788008A08E3006F
:100C00001E00360000A8AF001C003700C402A90077
:100C1000C422AF00EC013700CDA2A800CD82A9000C
:100C20000008A8003044800020408800604188000F
:100C3000804088009221EF000068AE0098E1A90092
:100C400000A8A800007D2000100888000021EF0007
:100C500005E1A8008460A9009460A800C00D2F00E1
:100C6000600888001001A8008500A9009500A80070
:100C7000CD02A8000080FE0000400600B004200065
:100C8000400888000621EF000A41A80084E0A9007E
:100C900094E0A8000128A8000080FE0000400600A3
:100CA000A00F2000400888000621EF000A41A8009C
:100CB00084E0A90094E0A8000080FE000040060047
:100CC00000A0FE00D0002000401988002023A800CA
:100CD0002003A9008760A9000060FE000008AE00A4
:100CE0009B013700C402A900C4C2A8000048AE009E
:100CF0001100370098E1A8001228EF00304480006E
:100D000060418800804088004200DE005041880039
:100D1000204088000228EF00804180006040880069
:100D200050408800B0DB2F000C01E3008601390041
:100D3000CD02A900840137000208E20012003A0047
:100D40000068AE0098E1A90000E8AA0000E8AE0043
:100D50000300370080012000D00C8800020037001B
:100D600020012000D00C8800504180008208E30060
:100D7000050032008408B4008208E30001003E0050
:100D80001044800050418800C0D520000208B40003
:100D90000208B4003220EF009000BA002003AE0039
:100DA000FEFF370040002000401988002023A800E3
:100DB0002003A90000188000404088001008E300CC
:100DC00001003E0080408800700C20000208E30013
:100DD0001A003A00804080001028EF006341800034
:100DE0006041880080814100504180000300500034
:100DF0000A003E00110032000080EA00F03FB2001D
:100E00004200DE000000E8000428B5000B003E00B0
:100E1000100020002040880008003700F03FB2009A
:100E20004200DE000000E8000428B400002020009A
:100E30000408E300010036002040880020408000C4
:100E40000101B800034178000280FD000200D100DA
:100E50000080B00002192000410020000000D100F5
:100E60001208AD00510020000000D1001208AD00B2
:100E7000900C88002003AE00FEFF3700E000200049
:100E8000401988002023A8002003A9000018800032
:100E9000C04088009208E300020036001228EF00EC
:100EA000400037001208E30002003E009040880036
:100EB0003C0037001348AF003A00370090408000F4
:100EC0001348A80000017800A1408000A2408800DB
:100ED0000100E10001003E0001007800800178007F
:100EE000B0478800E001B0005608E3000800390070
:100EF0000028A900030078009208E30029003E00C2
:100F00000028A800A000B1005208E3000D0039003D
:100F10000028A900E0932400100888000021EF00B9
:100F200005E1A8008460A9009460A800A001200049
:100F30009008E3001B003900CD82AA009028EF0042
:100F40001800370000A8AF00160037000028AE00D8
:100F50001400370000022000403A88000100E00041
:100F6000100032000110E10003003E009A21AE00A3
:100F70000C003700020037009A61AE00090037000C
:100F800010408000904788008808BD007408E30086
:100F900004003900B0408000403A88000108A800F1
:100FA00000A8A800E2012000134080002003AE004A
:100FB000FEFF3700A0002000401988002023A80071
:100FC0002003A90000188000E04088007E28B400BB
:100FD0000000EF0080A8B4007A28EC000310E100C4
:100FE00018003A00F04380007828B40000448000E4
:100FF00076A8B400D0438000E243800002014000A4
:10100000E04388007A28EF00B1438000C0438000AD
:10101000110009004288D8008100D0000100E100E1
:101020004260AF000000E800D0428800F143800039
:10103000C143880001448000B14388007E28EF004E
:101040008028EF007041800000A8AF001700370033
:10105000E04080005A08B50001003B000080EA0033
:10106000F04088002E08E3000C003E0098E1A80044
:101070009221EF0090A1A9009081A9000048A8004A
:10108000CD02A800403E2F00600888001001A80093
:101090008500A9009500A800AB003700420620009B
:1010A0000310E10005003A00F04080006144800038
:1010B0000100B8004500DE00004288002003AE00B9
:1010C000FEFF370090002000401988002023A80070
:1010D0002003A900100020000208E3000B003A00E2
:1010E0006028EC006088BF006A08E30001003E0051
:1010F0006028EF0000188000614080006040880098
:1011000001004000504088004900370050408000F6
:101110004008B4003208E3000D0036008E28ED00D0
:101120000D003B0098E1A8009221EF0090A1A900DA
:101130009081A900CD62A900C4E2A900C482A900DF
:10114000CC82A900CDA2A900CD02A9002EFE3700B5
:10115000833E2000734488003208BD00CDA2A80061
:101160006428EF006628EF006828EF0051438000F4
:101170000100500003003E000100400010438800C1
:1011800013003700114388000100500003003E00A7
:1011900001004000204388000D00370021438800F3
:1011A0000100500003003E00010040003043880071
:1011B00007003700314388000100500003003E0063
:1011C000010040004043880001003700414388008F
:1011D000CD62A900C4E2A900C482A900CC82A90002
:1011E0006088BF006208E3000A003600CD62A800F4
:1011F0006408E30007003600C4E2A8006608E300C4
:1012000004003600C482A8006808E300010036002C
:10121000CC82A8009500AF0005003700CD62AE007B
:1012200002003700CD02A90001003700CD02A8005E
:101230002003AE00FEFF370001188000600C200084
:101240000208E30029003A0071408800C041800094
:101250000E08E30002003E000068A80011003700FD
:10126000D04180000E08E30003003E000068AF009C
:101270000C0037001D0037000068A900E041800025
:101280000E08E30002003E00CCA2A80017003700C1
:10129000F04180000E08E30014003900CCA2A90040
:1012A0001200370098E1A8009221EF0090A1A90058
:1012B0009081A900CCA2A8001001AF000700370060
:1012C000C00D2F00600888001001A8008500A9004B
:1012D0009500A800CD02A80004003700403E2F0072
:1012E0000C01E30001003900CD02A9000228EC0046
:1012F000800C20000208E300130039000228EF00F0
:101300009028EC000108AE000F0037000108A9008A
:101310000008A900C4C2A900CD42A900CD22A9009D
:1013200000C8A8002828EF0000202000D042880034
:10133000E0932400100888000021EF0005E1A800D8
:101340008460A9009460A8000080FE0000400600B0
:10135000C402A80010012000D00C8800CD82A80093
:101360002003AE00FEFF3700400020004019880037
:101370002023A8002003A900001880004040880016
:101380001008E30001003100804088002003AE0017
:10139000FEFF3700E0002000401988002023A8004D
:1013A0002003A90001188000C140880000A8AF00F8
:1013B00046003700C04080005608E30018003E0099
:1013C000C422AE0028003700C402A90098E1A8009A
:1013D0009221EF0090A1A9009081A900CD62A900FF
:1013E000C4E2A900C482A900CC82A900CDA2A900B0
:1013F000CD82A9009460A90094E0A9009760A9009B
:101400009640A900CF0078004F0078008038200077
:10141000801F7800811F78000080FE0000400600D9
:10142000400620000208E30028003A00A0408000A7
:10143000A14088000100E1000200390000E8A90095
:101440000100370000E8A800924280008202B1004B
:101450000200E1001D003E000208E1001B003E000A
:10146000C422AF00D8FF370000A8A800007D2000EC
:10147000100888000021EF0005E1A8008460A900A1
:101480009460A800C402A900CDA2A800CD82A90042
:101490000008A80030448000204088006041880097
:1014A000804088009221EF000068AE0098E1A9001A
:1014B000C00D2F00600888001001A8008500A90059
:1014C0009500A800CD02A800DC003700E201200052
:1014D000134080002003AE00FEFF3700A000200074
:1014E000401988002023A8002003A90000188000CC
:1014F000004188007E28B4000000EF0080A8B400FE
:101500007A28EC000310E10018003A00F043800054
:101510007828B4000044800076A8B400D04380004E
:10152000E243800002014000E04388007A28EF0097
:10153000B1438000C0438000110009004288D800F8
:101540008100D0000100E1004260AF000000E8002F
:10155000D0428800F1438000C143880001448000EC
:10156000B14388007E28EF008028EF009201E2005E
:1015700007003200D04280002008B5004260AF0072
:101580000080EA002228B4000000EF0024A8B40084
:10159000F20120000310E1001C003A002428D500CD
:1015A00022A8D70000C8AE0011003700A04180007B
:1015B0000A08E30006003100104280002208E30020
:1015C00006003E000F0032002828EC000D00370016
:1015D000204280002208E300040036002808E200D0
:1015E000080034002828ED000600370000C8A900D4
:1015F000B04180000A08E300F8FF3E00010032001D
:101600002828EC002228EF002428EF002003AE0059
:10161000FEFF370090002000401988002023A8001A
:101620002003A90000188000604088002808E2001C
:1016300001003B002828EF00002020002808E300DC
:101640000100360040418800404180004200DE0039
:101650000218E100040036000002B0000018E100AA
:10166000C0428000010039000000EB00900C8800AF
:101670009081A90090A1A9000208E20010003A00A0
:10168000604380002000B00000C8AE0070438000BE
:10169000804388006028EC006088BF007008E30089
:1016A00001003E006028EF00604080009143800010
:1016B000904388000100400050408800300037000F
:1016C000904180004000B1000A08B5006428EF0096
:1016D0006628EF006828EF00814380000100500079
:1016E00003003E0001004000104388001300370053
:1016F000114388000100500003003E00010040003B
:10170000204388000D00370021438800010050006D
:1017100003003E000100400030438800070037000E
:10172000314388000100500003003E0001004000EA
:10173000404388000100370041438800CD62A90082
:10174000C4E2A900C482A900CC82A9006088BF00BD
:101750006208E3000A003600CD62A8006408E300D6
:1017600007003600C4E2A8006608E3000400360063
:10177000C482A8006808E30001003600CC82A800FB
:101780002003AE00FEFF370001188000600C20002F
:101790000208E30029003A0071408800C04180003F
:1017A0000E08E30002003E000068A80011003700A8
:1017B000D04180000E08E30003003E000068AF0047
:1017C0000C0037001D0037000068A900E0418000D0
:1017D0000E08E30002003E00CCA2A800170037006C
:1017E000F04180000E08E30014003900CCA2A900EB
:1017F0001200370098E1A8009221EF0090A1A90003
:101800009081A900CCA2A8001001AF00070037000A
:10181000C00D2F00600888001001A8008500A900F5
:101820009500A800CD02A80004003700403E2F001C
:101830000C01E300ADFE3900CD02A9000228EC0046
:10184000800C20000208E300030039000228EF00AA
:101850000068AE0098E1A9000080FE00004006008C
:1018600000A0FE003242AF00770037003202AE0027
:1018700075003700B01180008142800001F0A100A6
:10188000014001007000E1006D00310000600100C6
:101890000F0037001D003700310037003E003700D1
:1018A0005E003700660037006500370064003700CF
:1018B00063003700620037006100370060003700C6
:1018C0005F0037005E0037005D0037005C003700C6
:1018D000C0C628005B003700F00FB2000080FD009A
:1018E0005042880060C7280056003700E00FB20061
:1018F0004A08B700100078000080FD0034E2B7000D
:101900000080FD0034E2B7004D003700A0C8280079
:101910004C003700F00FB2000080FD0060428800EC
:1019200040C9280047003700E00FB2004C28B7003C
:10193000C0C9280043003700F00FB2000080FD004E
:101940007042880060CA28003E003700F00FB200E5
:101950004E08B700614280008008780038003700E8
:1019600040CB280037003700F107200091018800A4
:10197000E00FB20001F02F00010070001000BA006B
:101980003220EF000080FD0034E2B7000080FD004F
:1019900034E2B7002A00370000CD280029003700C4
:1019A00001F02F00E00FB2000100700060428800DB
:1019B000C0CD280023003700F00FB2000080FD00EA
:1019C0007042880060CE28001E003700F00FB20081
:1019D0004E28B70080052400003B880085E0A90060
:1019E000F007200090018800614280008008BB0061
:1019F00050052000303B8800A00A2000303B8800C2
:101A000061E7A800000000000000000097C0A900E6
:101A100095E0A8003220EF0009003700CF007800E1
:101A20004F007800801F7800811F78000080FD0043
:101A300034E2B7000080FD0034E2B7000000370058
:101A400020C428008042880087C0A9000080FE00D2
:101A50000040060087E0A9000040060000A0FE004C
:101A60000060FE0040002400003B880085E0A900E3
:101A7000F0072000900188007042800061428000E1
:101A80008008BB0050052000303B8800A00A2000E1
:101A9000303B880061E7A800000000000000000063
:101AA00097C0A80095E0A9003220EF000080FE005A
:101AB00000400600FFFF3700000000000D0000009E
:101AC0001900000026000000320000003F00000066
:101AD0004B0000005800000064000000710000008E
:101AE0007D0000008900000096000000A2000000B8
:101AF000AE000000BB000000C7000000D3000000E3
:101B0000DF000000EB000000F70000000301000010
:101B10000F0100001A010000260100003201000040
:101B20003D01000049010000540100006001000077
:101B30006B01000076010000810100008C010000B3
:101B400097010000A1010000AC010000B7010000F6
:101B5000C1010000CB010000D6010000E00100003F
:101B6000EA010000F4010000FD010000070200008E
:101B7000100200001A020000230200002C020000E4
:101B8000350200003E020000460200004F02000045
:101B900057020000600200006802000070020000AE
:101BA000770200007F020000860200008E02000023
:101BB000950200009C020000A3020000A9020000A0
:101BC000B0020000B6020000BC020000C202000029
:101BD000C8020000CE020000D3020000D8020000BC
:101BE000DD020000E2020000E7020000EB0200005C
:101BF000F0020000F4020000F8020000FC02000005
:101C0000FF020000030300000603000009030000B8
:101C10000C0300000E03000011030000130300007A
:101C20001503000017030000190300001A03000049
:101C30001B0300001D0300001D0300001E03000025
:101C40001F0300001F0300001F0300001F0300000C
:101C50001F0300001E0300001D0300001D03000001
:101C60001B0300001A030000190300001703000003
:101C70001503000013030000110300000E03000011
:101C80000C0300000903000006030000030300002A
:101C9000FF020000FC020000F8020000F402000055
:101CA000F0020000EB020000E7020000E202000088
:101CB000DD020000D8020000D3020000CE020000C6
:101CC000C8020000C2020000BC020000B602000010
:101CD000B0020000A9020000A30200009C02000064
:101CE000950200008E020000860200007F020000C4
:101CF000770200007002000068020000600200002D
:101D0000570200004F020000460200003E020000A1
:101D1000350200002C020000230200001A0200001D
:101D20001002000007020000FD010000F4010000A5
:101D3000EA010000E0010000D6010000CB01000034
:101D4000C1010000B7010000AC010000A1010000CA
:101D5000970100008C010000810100007601000065
:101D60006B01000060010000540100004901000007
:101D70003D01000032010000260100001A010000B0
:101D80000F01000003010000F7000000EB0000005D
:101D9000DF000000D3000000C7000000BB0000000F
:101DA000AE000000A20000009600000089000000C4
:101DB0007D00000071000000640000005800000079
:101DC0004B0000003F000000320000002600000031
:101DD000190000000D00000000000000FFFF3700A8
:101DE00000000000FFFFFF00FFFFFF00FFFFFF00FC
:101DF000FFFFFF00FFFFFF00FFFFFF00FFFFFF00EF
:101E0000FFFFFF00FFFFFF00FFFFFF00FFFFFF00DE
:101E1000FFFFFF00FFFFFF00FFFFFF00FFFFFF00CE
:101E2000FFFFFF00FFFFFF00FFFFFF00FFFFFF00BE
:0200000400FFFB
:10FE000078030000B40000007C060000B405000088
:10FE10007607000014070000C8000000FA00000088
:10FE20002C0100009001000078050000A8020000ED
:10FE30000800000000000000900100009A0100008E
:10FE4000610000005C0000003A0200000A000000AF
:10FE5000040100004B000000FFFF0000FFFF000056
:10FE6000FFFF0000FFFF0000FFFF0000FFFF00009A
:10FE7000FFFF0000FFFF0000FFFF0000FFFF00008A
:10FE8000FFFF0000FFFF0000FFFF0000FFFF00007A
:10FE9000FFFF0000FFFF0000FFFF0000FFFF00006A
:10FEA000FFFF0000FFFF0000FFFF0000FFFF00005A
:10FEB000FFFF0000FFFF0000FFFF0000FFFF00004A
:10FEC000FFFF0000FFFF0000FFFF0000FFFF00003A
:10FED000FFFF0000FFFF0000FFFF0000FFFF00002A
:10FEE000FFFF0000FFFF0000FFFF0000FFFF00001A
:10FEF000FFFF0000FFFF0000FFFF0000FFFF00000A
:10FF0000FFFF0000FFFF0000FFFF0000FFFF0000F9
:10FF1000FFFF0000FFFF0000FFFF0000FFFF0000E9
:10FF2000FFFF0000FFFF0000FFFF0000FFFF0000D9
:10FF3000FFFF0000FFFF0000FFFF0000FFFF0000C9
:10FF4000FFFF0000FFFF0000FFFF0000FFFF0000B9
:10FF5000FFFF0000FFFF0000FFFF0000FFFF0000A9
:10FF6000FFFF0000FFFF0000FFFF0000FFFF000099
:10FF7000FFFF0000FFFF0000FFFF0000FFFF000089
:10FF8000FFFF0000FFFF0000FFFF0000FFFF000079
:10FF9000FFFF0000FFFF0000FFFF0000FFFF000069
:10FFA000FFFF0000FFFF0000FFFF0000FFFF000059
:10FFB000FFFF0000FFFF0000FFFF0000FFFF000049
:10FFC000FFFF0000FFFF0000FFFF0000FFFF000039
:10FFD000FFFF0000FFFF0000FFFF0000FFFF000029
:10FFE000FFFF0000FFFF0000FFFF0000FFFF000019
:10FFF000FFFF0000FFFF0000FFFF0000FFFF000009
:0200000401F009
:10000000FEFF0000FFFFFF00FFFF000059FF0000A0
:10001000DBFF0000F7FF0000FFFF0000FFFF000014
:00000001FF
