:020000040000fa
:08104000ce570400000000007f
:020000040000fa
:10100000501a00000002000000050000000000006f
:020000040000fa
:10104800820e0400000000000058040000000000a8
:1010580006580400000000000c58040000000000be
:101068001258040000000000820e04000000000076
:10107800820e040000000000820e04000000000040
:10108800820e040000000000820e04000000000030
:10109800820e040000000000e221040000000000ad
:1010a800820e040000000000820e04000000000010
:1010b800820e040000000000145504000000000027
:1010c800820e040000000000820e040000000000f0
:1010d800820e040000000000820e040000000000e0
:1010e800820e040000000000241904000000000023
:1010f800820e040000000000820e040000000000c0
:10110800820e040000000000820e040000000000af
:10111800820e040000000000465604000000000093
:10112800820e040000000000820e0400000000008f
:10113800820e040000000000820e0400000000007f
:10114800820e040000000000820e0400000000006f
:10115800820e040000000000820e0400000000005f
:101168000a56040000000000820e0400000000007f
:10117800820e040000000000820e0400000000003f
:10118800820e040000000000820e0400000000002f
:10119800820e040000000000820e0400000000001f
:1011a800820e040000000000820e0400000000000f
:1011b800820e040000000000820e040000000000ff
:1011c800820e040000000000820e040000000000ef
:1011d800820e040000000000820e040000000000df
:1011e800820e040000000000820e040000000000cf
:1011f800820e040000000000820e040000000000bf
:10120800820e040000000000820e040000000000ae
:10121800820e040000000000820e0400000000009e
:10122800820e040000000000820e0400000000008e
:10123800820e040000000000820e0400000000007e
:10124800820e040000000000820e0400000000006e
:10125800820e040000000000820e0400000000005e
:10126800820e040000000000820e0400000000004e
:10127800820e040000000000820e0400000000003e
:10128800820e040000000000820e0400000000002e
:10129800820e040000000000820e0400000000001e
:1012a800820e040000000000820e0400000000000e
:1012b800820e040000000000820e040000000000fe
:1012c800820e040000000000820e040000000000ee
:1012d800820e040000000000820e040000000000de
:1012e800820e040000000000820e040000000000ce
:1012f800820e040000000000820e040000000000be
:10130800820e040000000000820e040000000000ad
:10131800820e040000000000820e0400000000009d
:10132800820e040000000000820e0400000000008d
:101338008855040000000000820e04000000000030
:10134800820e040000000000820e0400000000006d
:10135800820e040000000000820e0400000000005d
:10136800820e040000000000820e0400000000004d
:10137800820e040000000000820e0400000000003d
:10138800820e040000000000820e0400000000002d
:10139800820e040000000000820e0400000000001d
:1013a800820e040000000000820e0400000000000d
:1013b800820e040000000000820e040000000000fd
:1013c800820e040000000000820e040000000000ed
:1013d800820e040000000000820e040000000000dd
:1013e800820e040000000000820e040000000000cd
:1013f800820e040000000000820e040000000000bd
:10140800820e040000000000820e040000000000ac
:10141800820e040000000000820e0400000000009c
:10142800820e040000000000820e0400000000008c
:020000040000fa
:10160000001b04000000000003f0a200889fbe0041
:101610008a9fbe008c1f7800320107003901330019
:101620006450e1004f0032006420e10052003200bb
:1016300003826c0007003b000905d0000306d000c0
:10164000820f54000c065d000200390002003200d7
:1016500089017800030678008582550004003d006a
:101660000003fd008103fd008502ea008b85420036
:10167000840f720002003b0060001000e080180040
:101680006011b8000005eb007a28e1000a0039007b
:1016900006007800c75ddd00f707b200878075009f
:1016a0002d003700828171000a0178006105600019
:1016b0008180d1000080d3008502e900f9ff3b0062
:1016c000060440008784480002003b0060041400c8
:1016d000e0841c000988a300070032008a817100a1
:1016e00082817100610164008904d1000884d30003
:1016f0008b05e800170037000978a30013003a00b3
:101700000b00e000130034008b05e90008044400de
:1017100089844c000a4474000978a3000d003a0043
:101720000b00e000070034008b05e90008044400ca
:1017300089844c0001003a000b0020000978a300c6
:10174000f7ff32000001eb000200370082817100d8
:101750000a017800a80007000cf0a70001f0a00023
:10176000f10037006420e10002003a00838f6c0032
:10177000f10033000801be000200be00ea0037009d
:10178000889fbe008a9fbe008c1f7800d50007008e
:10179000dc00330003866c006450e1002e00320050
:1017a0006420e100330032006150e1002f0032007c
:1017b0006120e1003100320085855500eb07b00063
:1017c0000900200008042000050037000804440038
:1017d00089844c000a0031000603430087834b00d4
:1017e0000001530081815b00f8ff33000203be005b
:1017f0000800a0000804440089844c00f6ff39006a
:10180000c639dd008301730001003200130020009f
:101810008904d1000884d3000998a3000500320090
:101820000800a7000300a0008904d1000884d300a9
:101830008b05e8008904d1000884d3000001eb0087
:101840000281d2006c00070001f0a1000cf0a7009b
:1018500001f0a000b40037006420e100b6003200bf
:101860000801be000200be00f7ff37006120e10062
:10187000b10032006000b800f3ff37000000200024
:1018800001f82700f0ff3700839f68000100e000a7
:1018900002003d0060001000e08018000300e0003e
:1018a00002003d0060011100e0811900d90007002d
:1018b0004f00e00002003b0060001000e0801800d4
:1018c0000000060014002000e5003700f4ff2f00a0
:1018d000e30037000001be006d0007000470a700a0
:1018e00003f0a10003f8a30013003a006509b1005a
:1018f00010003200090035006928e10002003500bf
:101900000100280000000500000040008180480020
:101910008502e900fcff3a0000000600f88f420053
:10192000050035008100d1000080d3008502e80069
:10193000fcff3a00000006008000eb0000000500fc
:10194000881f7800010478000100e00005003d00d8
:1019500060001000e080180002003b0001f02c0045
:10196000030037000400070008f0a70001f0a00002
:101970004f04780000000600889fbe008a9fbe00ca
:10198000010578000000e000180032000004be00ed
:101990006011b8006b0920000982cf0002003900f5
:1019a0000882cf000441b000694252000e003200ac
:1019b00008003b0082817100610164008904d1004c
:1019c0000884d3008b05e8000442e800f9ff3a00e0
:1019d000050037000804440089844c008b05e900a9
:1019e0000442e900fbff3a00030007004f05be0078
:1019f0004f04be00000006008100200061805500f9
:101a00000b003d000b00200061fe2f000100e100f3
:101a10001d00340082817100610164008904d100dd
:101a20000884d3000000e800faff3a0071002000ab
:101a300061006400030070000200600009003200d1
:101a400061044400e0844c000988a50005003200d0
:101a50008b05e8006808e10002003a008904d10023
:101a60000884d300f20f20000258e10005003d0079
:101a7000c75ddd00f907b2008980750008007800b5
:101a8000000006000bf827008b007800000005001e
:101a9000c70ade00f107b200f50fb20008003200fd
:101aa000e1cf4200020032000170a00024000500d6
:101ab000810f700001003200040805004400050099
:101ac000810f700002003a00140005008502e90051
:101ad0000000400081c04800fcff3b000170a000f6
:101ae000240005000004be00e9ff07000003be005b
:101af0000405be000200be00e5ff0700844f75002c
:101b0000000006000200be006450e100050036003f
:101b10006420e100020036000968a30001003a00d9
:101b20000800be000160a0004f0678004f05be000f
:101b30004f04be0000000600f0ff2f00f1ff270059
:101b4000f9ff3700889fbe008a9fbe008c1f780077
:101b5000e4ff0700ebff330003866c006450e100f4
:101b6000240032006420e100270032006150e100cf
:101b7000220032006120e100210032008b8542000a
:101b8000eb07b1000134b800003ab8000804420085
:101b900089844a00013ab8000030b80088804000cb
:101ba00009014a0004003300000040008180480021
:101bb000020149008b05e900c909dd0083017000bd
:101bc0000100320013002000c814de004814dd00bc
:101bd0004709de001200b200c808de000884700069
:101be00085ff070001f0a1000cf0a70001f0a000a4
:101bf000cdff37006120e100cfff32000801be00b9
:101c00000200be00f7ff37006150e100fcff3a0020
:101c1000c9ff37006022b800060220000000d00093
:101c20008180d2000482d2008582d2000000a00010
:101c30000202520083825a00030031000202420075
:101c400083824a000000a1000603e900f3ff3a0086
:101c500000000600efff07000400be0000000600c1
:101c6000889fbe008a9fbe00841f78009dff0700ea
:101c70004f00780011003300f0ff2f00838f6c00bd
:101c800006003b00040565000a00a70008003700b5
:101c900009f0a6001000200008003700820f540051
:101ca000838f5c00030039001000200001003e001b
:101cb0000000200009f0a7000000ea004f05be0068
:101cc0004f04be000000e000000006008001780024
:101cd00002003700b15978000201e900e00f51001d
:101ce000fcff3a0000000600800178000200370087
:101cf000815978000201e900e00f5100fcff3a0031
:101d0000000006000040da000000fe000200fa00b9
:101d100012000700004f78009e4078000040eb0062
:101d200080cf50000200320084000700faff370025
:101d3000cd42a800cd62a90060d823000100200098
:101d40000a010700cd42a900cd62a90060d8230096
:101d50000100200005010700efff37000400fa0032
:101d600010c0b300004f7800900280001007980068
:101d7000ff3ffc0011028000f0f12f0000806000a6
:101d8000100288001e009000900288000000880069
:101d9000a0ff2000e07f880006120700203023000b
:101da000103a88000000eb00203a8800220007006b
:101db00053000700609d220001002000eb00070097
:101dc000680007002a1007000b0107003701070011
:101dd000c60007000000eb0072000700d7050700ef
:101de0008040eb00814f500002003a000040eb00c1
:101df000004f7800090607008040eb00814f50003b
:101e000002003a000040eb00004f78009e030700fc
:101e10009e4078000040eb0080cf5000020032006e
:101e2000cd42a900cd62a900221207001e40780011
:101e30000080fa00000006000000fa0020ff2f00da
:101e400060198800c922a900c962a900c942a90075
:101e5000cd22a800cd42a800cd62a800e862a9006a
:101e6000e042a900ec62a900e442a900e862a800ef
:101e7000e402a800d842a900e002a900e422a800d8
:101e8000e022a900cc22a900dcc2a900c822a90036
:101e9000d8c2a900d862a800d882a900d842a80058
:101ea000dc82a900da42a900e4a2a900cca2a90020
:101eb000cc82a900e0a2a900e0c2a900c8a2a900a2
:101ec000c882a900e4e2a800e462a900e662a800d2
:101ed000e0e2a900e062a900c862a800c842a80028
:101ee000d8c2a900c822a900d942a900d922a900b4
:101ef000c9c2a900d822a9000080fa00000006008b
:101f00000000fa00420020008000eb0040ff2000ab
:101f100075ff07000040eb00f4efb70020c0b300ee
:101f2000f5efb7000040eb00f6efb70050c0b3008c
:101f3000f7efb7000080fa00000006000000fa008a
:101f400002003700f11107004f06070045050700a2
:101f50008040eb00814f5000faff3a000080fa0009
:101f6000000006000000fa0000e0200000038800e6
:101f70000000eb00100388008660a9006105800066
:101f8000f0ff2800808060000000210000807000c9
:101f9000600588006340a8009660a8000080fa00f1
:101fa000000006000200fa00000f78009e00780092
:101fb0000000eb00808f500003003a00e4e2a8002c
:101fc000e462a80002003700e4e2a800e462a9008d
:101fd0000080fa00000006000a00fa00008fbe0030
:101fe0002207980033079800440798000000eb0090
:101ff000000988000000eb00f00888001e61a800be
:102000003e009000a07588004e009000c0758800ca
:102010002e009000b07588001e01be000024240030
:10202000f1002000800f5100818f59001000360010
:102030001e00be004206200003002000f5fe07003f
:10204000026420000289b900020178006002b90030
:102050008401780003014100036420000300b800fc
:102060000101410082007800008fbe000f003700a0
:102070001e00be00026420000289b900020178003f
:102080006002b9008401780003014100036420006c
:102090000300b800010141008200780042062000e0
:1020a00003002000dbfe0700008fbe000e0078005a
:1020b0000080e80010007800e00888000e0078003a
:1020c00010007800d00888008780a9009105800062
:1020d00080ff2f00008060000000a00090058800b5
:1020e0009780a8000080fa00000006000000fa00b7
:1020f000000320008008880084e0a900c0142500a7
:102100006008880031058000f0ff280080806000b2
:1021100000002200008070003005880094e0a800d4
:102120000080fa00000006000000fa0011e1a8009b
:102130000080fa00000006000000fa000000eb003a
:10214000c00888000000eb00a00888008780a90074
:102150001fe1a8000080fa00000006000000fa005d
:102160001fe1a9000080fa00000006000400fa0048
:10217000008fbe001e01be006000b800800f51003d
:10218000818f59001a003200f4ff07001e01be00c3
:102190002001200001002000800f5100818f590094
:1021a00004003600e0fe2f00f1ff2f001e0f40005c
:1021b0005e9748000002eb008001eb000001eb009d
:1021c0001e00be0084ff07009780a900daff070009
:1021d00000000000310480000000210080806000c9
:1021e0000000eb00808f5000faff32008780a900ca
:1021f0000080fa00000006000200fa00020220003f
:102200008000eb00a0eb2000b7fe0700a0eb200051
:1022100004000700004f78001e4078000080fa009c
:10222000000006000400fa001007980010c0b30078
:10223000004f78001e009000e40020000500200000
:10224000000178004000200001002000130f07006b
:10225000004f78001e009000104078001047980052
:102260009e40900000c0eb0080cf5000080032007c
:102270009e4090000040eb0080cf500004003200f0
:102280009e4078000040eb0080cf500004003a00f0
:10229000d2002000c14f2d00a0eb20008bfe0700d4
:1022a0001e4078000080fa00000006000200fa00dc
:1022b000020220008000eb00a0ed20008afe070053
:1022c000a0ed200004000700004f78001e407800b9
:1022d0000080fa00000006000400fa0010079800d1
:1022e00010c0b300004f78001e00900004022000d0
:1022f000050020000001780060012000010020009e
:10230000e60e0700004f78001e0090001040780095
:10231000104798009e40900030c2b30080cf50001c
:1023200004003a009e4078000040eb0080cf50004f
:1023300002003a000040eb00004f78001e40780099
:102340000080fa00000006000600fa00000f780086
:1023500011079800220798001e007800ae00900038
:102360000108bb001e0078009e0090000188bb00a1
:102370000080fa00000006000000fa0010002400af
:10238000003b880050052000303b8800a00a200058
:10239000303b880061e7a80000000000000000005a
:1023a00000000000013b80000000280080806000e9
:1023b0000000eb00808f5000faff3a000080fa0026
:1023c000000006001000fa006007980071079800ee
:1023d000100280004500de00674060000080fb00c6
:1023e0005007980090028000000f7800ff3ffc002b
:1023f00011028000f0f12f0080806000000c2000ae
:1024000000807000100288001e0078009002880092
:1024100000008800e07f80008000eb000108780069
:102420006e009000fe0090004008de0001002000d9
:10243000100798006e0090002007980032c0bf007f
:102440000080fb00300798001e00900000407800dc
:1024500032e0b70020042400003b88002e009000ea
:10246000ae0090000108bb0050052000303b880002
:10247000a00a2000303b880061e7a80000000000af
:102480000000000000000000013b80000000280068
:10249000808060000000eb00808f5000faff3a005f
:1024a0003e0090000040780032e0b700e07f8000fe
:1024b0003100200001087800900280004007980059
:1024c000ff3ffc005e009000004078006740600025
:1024d0000080fb00670060004500dd001202800004
:1024e000f1f12f008100610000807000100288006f
:1024f0004e00900090028800000088000080fa00e2
:10250000000006001800fa00100f9800220f980033
:10251000330f9800100280004500de006740600025
:102520000080fb00000f98009002800020079800b8
:10253000ff3ffc0011028000f0f12f00808060005e
:10254000000c200000807000100288002e00900017
:102550009002880000008800e07f80008000eb008f
:10256000010878002e089000be0890004008de00a8
:1025700001002000300798002e08900010079800f6
:1025800032c0bf000080fb00400798003e00900072
:102590000040780032e0b7000000eb00000f780048
:1025a000200037001e089000104078000080fb00db
:1025b000500798001e0890000000e800100f9800d7
:1025c0001e089000104078000080fb004800dd00ed
:1025d000de00900000807000500798001e089000f8
:1025e0000000e800100f98001e08900010407800ce
:1025f0000080fb00600798001e0890000000e800c3
:10260000100f98005e019000ee0090001e009000f8
:102610004dff07001e0090000080e80010079800a2
:102620001e0fe800f00320009e007800808f50000d
:10263000dcff360050ff07004e009000004078009d
:1026400032e0b700e07f8000310020000108780010
:102650009002800070079800ff3ffc000e08900079
:1026600000407800674060000080fb006700600069
:102670004500dd0012028000f1f12f0081006100b1
:1026800000807000100288007e0090009002880098
:10269000000088000080fa00000006000000fa0038
:1026a00000002a002100200046ff0700f0ceb30002
:1026b000faeeb700e0cbb300fbeeb7000040eb0052
:1026c000fceeb70002002a0023002000a0ef20004b
:1026d0008cff07000080fa00000006000c00fa00e2
:1026e0000040eb00004f78006800470052a88600c9
:1026f00063a886000288be0034c0bf000080fb00d3
:102700001007980010c0b30034e0b70000002f009d
:10271000200798002e009000900178003307980061
:10272000be009000a0992a00808f500019003a0046
:102730002e0090000080e800420020008000780019
:10274000a0fb200061fd070068004700ae0090007c
:102750008180e8001001780090019000110078005d
:10276000910090003f000700004f78009e407800e5
:1027700010c0b30080cf500003003a000d000700e6
:10278000004f7800050037000040eb00004f780054
:10279000020037000040eb00004f78001e00900060
:1027a0000040780034e0b7001e4078000080fa0056
:1027b000000006000a00fa000040eb00004f78001d
:1027c00050c0b30034e0b70000ff290010079800a4
:1027d0001e0090009000780021079800ae00900045
:1027e000a0992a00808f50001b003a001e00900024
:1027f0008080e800660047004200200033fd0700ab
:102800006600470090409000bbcfbf0080cf5000d3
:1028100011003a0066004700a0409000bccfbf0006
:1028200080cf50000c003a0066004700b040900096
:10283000bdcfbf0080cf500007003a0066004700c0
:1028400090407800bacfbf0080cf500002003a001d
:1028500010c0b300004f78001e4078000080fa00de
:10286000000006000a00fa000e82e800000a780064
:1028700011029800660047000208780013009800d3
:102880000040eb00004f78000e80e8009040900080
:10289000660047001040900080cf50001e003e00b0
:1028a0000e80e800904090006600470010409000c5
:1028b00080cf500006003a000e80e800a040900053
:1028c000660047002040900080cf500012003e007c
:1028d0000e80e80090409000660047001040900095
:1028e00080cf500019003a000e80e800a040900010
:1028f000660047002040900080cf500013003a004f
:102900000e80e800b0409000660047003040900024
:1029100080cf50000d0039000e80e8009040780014
:10292000660047001040780080cf5000050031005d
:1029300066004700904078000040eb0080cf5000d8
:1029400002003a0010c0b300004f78001e4078002b
:102950000080fa00000006000200fa00004f780034
:102960009e4078000040eb0080cf50000200320013
:10297000ec22a80001003700ec22a900e822a900ff
:102980000080fa00000006000000fa00ff0b0900ba
:10299000000000000080fa00000006000400fa00b9
:1029a00095a0a90085a0a9000000eb0000198800ef
:1029b0000000eb00401988000000eb00801988003f
:1029c00000102000201988000000eb00101988007a
:1029d00021e3a800ecff07000000eb0010079800bf
:1029e0000000eb00000f7800100037002023a80043
:1029f000e5ff07002023a900000000000019800067
:102a0000e10060000000eb00808f5000fbff32000f
:102a10009e0078000018800000804000000f7800c1
:102a20001e0090000000e800100798009e00900033
:102a3000f0002000808f5000ecff34009e007800f2
:102a40000000eb00808f50000c0032001e00780068
:102a5000cf80de00bafb070002002000031824002c
:102a600047fb07000001be00000020000102240017
:102a700043fb070040868800518688000000eb0079
:102a8000001988000080fa00000006000000fa002b
:102a90000000eb0000198800203020004019880059
:102aa00050002000101988004002210020198800e1
:102ab000000e20000019880085a0a90095a0a9009b
:102ac00051058000f0f82f00808060000006200093
:102ad00000807000500588002043a80021e3a80072
:102ae000800c200001002000a0fd07000080fa00fb
:102af000000006000200fa0095a0a9006086800090
:102b0000000f780095a0a8001e0078000080fa0051
:102b1000000006000200fa0095a0a900908680003f
:102b2000000f780095a0a8001e0078000080fa0031
:102b3000000006000a00fa00881f7800300798009d
:102b4000410798000200200003e023003e009000af
:102b5000ce0090000afb07005efb0700000f780024
:102b60001e0078000100200083fb07000200200007
:102b700003e02300f3fb07000001be003e009000cd
:102b8000ce009000a0fa07001007980021079800d7
:102b900018c0b3000200200003d823001e009000dc
:102ba000ae00900049fb07008000eb00810f500051
:102bb00001003c000044eb000040eb00804f54005b
:102bc000010032001e0fe8001e0078004f0478005c
:102bd0000080fa00000006000400fa00c5ff0700ac
:102be0000100200064fb07000002be004086800058
:102bf000518680000001be000400be00d1fb07002a
:102c0000d27d2a0083eb2300ddfa0700008fbe008f
:102c10001e00be000080fa00000006000400fa005a
:102c2000bcff07000100200053fb07000002be00ac
:102c300040868000518680000001be000400be0076
:102c4000c0fb0700127e2a0083e32300ccfa0700b2
:102c5000008fbe001e00be000080fa0000000600cb
:102c60000000fa00dcff0700b2ff07000080fa0056
:102c7000000006000000fa00e8ff0700adff0700b3
:102c80000080fa00000006000000fa00c2012000e7
:102c90008000eb00800c210013fc0700ec62a9000f
:102ca000e442a900e862a900e042a9000000eb00ac
:102cb00090088800900620007008880013e1a800a2
:102cc00036ff070071ff0700e230a8001000200067
:102cd000f08688000040eb00b4010700c00020002f
:102ce000a0000700c00020001e0007000080fa00be
:102cf000000006000400fa00004f78001107980059
:102d00009e4078000040eb0080cf50000b003a005e
:102d10000000eb00d00c88000000eb00000d8800e4
:102d20001e009000f00c8800d0002000e00c88000d
:102d300070402000d00c8800080037000000eb0035
:102d4000800c88000000eb00b00c88001e00900092
:102d5000a00c8800d0002000900c88000080fa00b1
:102d6000000006000800fa00300798000040eb0061
:102d7000004f78003e00900001002000fefa07009e
:102d80000200200003e023006efb070010079800fc
:102d9000210798001e009000ae009000050007007b
:102da00010c0b300004f78001e4078000080fa0089
:102db000000006000a00fa00881f7800300798001b
:102dc0004107980010c0b300004f780095a0a900fb
:102dd00051058000f0f82f00808060000006200080
:102de0000080700050058800e2f0a900e310a900ff
:102df000e2b0a90018c0b3000200200003162400ae
:102e00003e009000ce009000b0fa07008000eb007a
:102e1000810f500001003c000044eb000040eb003b
:102e2000804f5400060032000000200001162400ec
:102e300030079800410798000040eb00004f7800f1
:102e40006011b8003e009000ce0090009dfa07008f
:102e50008000eb00810f50000b003a000000eb00f7
:102e6000800c8800118780000004200080806000b2
:102e70000000eb00808f50000100320095a0a800f8
:102e800010c0b300340037003233230033f3230083
:102e90003e009000ce0090002afb0700100798002b
:102ea0002107980095a0a900127e2a0083e3230041
:102eb0001e009000ae00900022fb07000002be0042
:102ec00040868000518680000001be000400be00e4
:102ed0002bfa07007ffa070000007800a086880020
:102ee0000000eb00b086880050052000e0868800d6
:102ef000127e2a0083e323003e009000ce00900063
:102f000010fb07000002be00408680005186800052
:102f10000001be000400be0019fa070002002000f4
:102f200003082400b9f907006afa070000007800d6
:102f3000c0868800c086800068005000d086880067
:102f40005105200010c0b3006aff0700e310a8007d
:102f500095a0a8001e4078004f0478000080fa0079
:102f6000000006000c00fa00881f78005007980047
:102f70000040eb00004f78005e0090000100200050
:102f80007dfa07000200200003e02300edfa0700ad
:102f900010079800210798001e009000ae009000d6
:102fa000450007000cff0700300798004107980014
:102fb0002bff07004087880040878000308788000b
:102fc0001e019000ae0190003e009000ce009000e7
:102fd0008df9070001f0a10018c0b300a2702d0008
:102fe00033e2230037fa07008000eb00810f500026
:102ff000010035000044eb000040eb00804f54001e
:103000000300320010c0b300004f78000100370009
:10301000000000001e4078004f0478000080fa0095
:10302000000006000a00fa00881f780030079800a8
:10303000410798000040eb00004f78003e009000f0
:10304000ce0090001c000700e3fe07001007980068
:10305000210798003e019000ce0190001e009000d4
:10306000ae00900068f9070001f0a10018c0b3009d
:10307000a2702d0033e2230012fa07008000eb005b
:10308000810f5000010035000044eb000040eb00d0
:10309000804f54000300320010c0b300004f78008e
:1030a00001003700000000001e4078004f04780047
:1030b0000080fa00000006000a00fa00881f78006d
:1030c000300798004107980010c0b300004f780007
:1030d00095a0a900e2d0a9006011b8003e009000c0
:1030e000ce009000f7f907008000eb00810f500040
:1030f00004003a000000eb00d00c880010c0b300c0
:103100004e00370018c0b30002002000030a24005c
:103110003e009000ce009000ecf907008000eb002c
:10312000810f500001003c000044eb000040eb0028
:10313000804f54000600320000002000010a2400e5
:1031400030079800410798000040eb00004f7800de
:10315000a299290093f523003e009000ce00900034
:1031600078fa0700100798002107980018c0b300ec
:10317000a2702d00330824001e009000ae009000c5
:10318000d2f907008000eb00810f500001003c00e5
:103190000044eb000040eb00804f5400040032007c
:1031a000a0702d0031082400100798002107980016
:1031b000d27d2a0083eb23001e009000ae00900019
:1031c00060fa07000002be00408680005186800041
:1031d0000001be000400be0069f90700bdf9070048
:1031e00000007800708688000000eb008086880070
:1031f000f2282c0053d723003e009000ce00900010
:103200005ff907000200200003f02300fff8070029
:10321000b0f9070000007800800078000040eb0063
:10322000b4fe0700e2d0a80095a0a800007122001b
:1032300001002000cdfb07001e4078004f047800fd
:103240000080fa0000000600809fbe00821f780008
:103250000800fa00100280004500de0067406000b0
:103260000080fb003007980090028000000f78007b
:10327000ff3ffc0011028000f0f12f008080600011
:10328000000c200000807000100288001e007800f2
:103290009002880000008800e07f80008000eb0042
:1032a0000108780034c0bf000080fb0010079800c0
:1032b000000020000040780034e0b70085a0a9009d
:1032c00000188000608688001018800090868800b2
:1032d0001187800000082000808060000000eb0063
:1032e000808f5000160032001187800000022000fd
:1032f000808060000000eb00808f500010003a00da
:1033000091868000c0868000808f500002003600c9
:103310000000eb00800c880091868000d086800041
:10332000808f500006003100810c80000000eb000f
:10333000808f500002003a0070402000800c88000e
:103340001e0090000040780034e0b700e07f80006d
:1033500031002000010878009002800020079800ca
:10336000ff3ffc003e009000004078006740600096
:103370000080fb00670060004500dd001202800055
:10338000f1f12f00810061000080700010028800c0
:103390002e00900090028800000088000080fa0053
:1033a0004f0178004f00be00004006000200fa0006
:1033b000004f78009e4078000040eb0080cf500026
:1033c0000f00320011878000001020008080600014
:1033d0000000eb00808f500006003200704020009b
:1033e000800c8800e2f0a800801a2600010020006e
:1033f0005efb0700e4c2a900e4a2a80011003700a8
:103400001187800000022000808060000000eb0037
:10341000808f500009003a00e2f0a9000000eb00a4
:10342000800c8800e4c2a80080b5210001002000c3
:103430004efb0700e4a2a90002003700e4a2a900a5
:10344000e4c2a8000080fa00000006000000fa00b4
:10345000201780004500de00614060000080fa0017
:10346000000006000000fa00da0107008000ea0010
:10347000008070004f00de00004078000080fa00fd
:10348000000006000600fa00000f780012079800fe
:10349000230798001e019000ae0190001e007800e6
:1034a000fb0107001e0090001e0040000080fa0093
:1034b000000006000200fa001200200003002000b5
:1034c0000e007800f20107001e4078000080fa002c
:1034d000000006000000fa0010c0b30050e8b7007a
:1034e0006000b80090428800a14288000040eb00d4
:1034f0005ae8b7000040eb005be8b7000040eb0083
:103500005ce8b70010c0b3005de8b7006000b80029
:10351000b0428800c14288000080fa000000060026
:103520000000fa000000eb00004588000000eb00fe
:10353000104588000080fa00000006001e00fa0016
:10354000426120008000eb00008a2000e6f90700bd
:10355000e0ff0700f2ff07000000eb00000f78001b
:103560001a003700a1ed20009140780030c2b3006e
:1035700080cf50000b003a009e00e800a0ed200034
:1035800000804000104078008080fb000e81e80041
:103590001e00780000004000000041000108780093
:1035a00009003700a0eb20001e004000104078000a
:1035b0008080fb000e81e8001e00780000004000c3
:1035c00000004100010878001e0fe8009e0078000e
:1035d000d0002000808f5000e2ff34009b060700df
:1035e0000e80e800b8060700de03070010c0b30035
:1035f000a5e8b70010c0b3000080fa000000060084
:103600000200fa00000f78009e00780010c0b3009e
:10361000804878000080fa00000006000400fa00ec
:103620000040eb00004f78000040eb00204798007e
:103630000040eb00104798000e80e8000002780080
:1036400003b021000001eb00006c2c00d10220002f
:1036500061fa0700b8fa070010003700fd03070001
:10366000210321009140780000c2b30080cf5000b8
:1036700004003200ae4090000040eb0080cf5000cc
:103680000600320010c0b300004f780010c0b30035
:103690001047980010c0b300affc07009e407800b0
:1036a0000040eb0080cf5000ecff32009e409000c5
:1036b0000040eb0080cf5000090032009ec0a900fe
:1036c0008ec0a90071068000f08f2f0080806000fe
:1036d0000060200000807000700688009ec0a80076
:1036e00010c0b3000080fa00000006000800fa00d5
:1036f000000f780012079800230798006147980090
:1037000000000000e80007008040eb00814f5000ff
:10371000fcff32009e0078000000eb00808f50001c
:103720000e003a001e019000c07f800090007800db
:1037300013458000808a20000080410063f9070063
:10374000c07f8000c17f8000110178009e00900042
:103750008100410001087800070037009e009000ba
:1037600012458000808a200000004100010178009d
:103770009e00780055f90700114580001e0090005a
:103780000080400010458800014580001e00900028
:103790000080400000458800ee4090000040eb00b3
:1037a00080cf500001003200370007000080fa008f
:1037b000000006000000fa000080fa000000060089
:1037c0000800fa00100798002207980033079800b5
:1037d000ae00900012458000808a20000000410069
:1037e000010178009e00900038f907000145800033
:1037f0002e00900000804000004588000000eb0093
:10380000000f7800090037001e007800e800400033
:10381000008a20000080400010407800818a20004b
:103820009e804000804878001e0fe800f0032000d2
:103830009e007800808f5000f3ff36000045800026
:1038400000458800114580002e0090000080400057
:1038500010458800014580002e0090000080400047
:103860000045880003c4b300828a200011c0b30061
:1038700010c0b3007d0807008087880028ff07007c
:103880000080fa00000006000600fa00808a20008e
:10389000000f7800014580000000eb00808f500091
:1038a00045003200e1ff2000914078000040eb002d
:1038b00080cf50000300320080382100010020003a
:1038c0002afa07000000eb00200798000c003700e0
:1038d0002e009000e8004000008a20000080400098
:1038e000104078002e019000818a20008100410064
:1038f000804878002e0090000000e8002007980023
:10390000ae009000f0032000808f5000f0ff3600e2
:103910000045800000458800220037008187800034
:103920000000eb00808f5000050032000000000016
:10393000960007008040eb00814f5000fcff3200f2
:103940000145800000042000808f500003003600f5
:1039500000c4b300204798000200370000458000f3
:1039600020479800014580002e4090000080fb0019
:10397000008050000045880003c4b3001e01780099
:1039800011c0b30010c0b30038080700808788005a
:103990002e4090000080fb001e0f40000040eb0016
:1039a000a5e8b700014580000000eb00808f5000c3
:1039b000daff3a00dafe07000080fa000000060095
:1039c0000000fa0000000000718780000000eb009a
:1039d000808f5000080032007087800090007800cf
:1039e00000002800808060000000eb00808f500005
:1039f000f5ff3a00010037000000000081878000d9
:103a00000000eb00808f50000700320080878000ac
:103a10009000780000002800808060000000eb002b
:103a2000808f5000f5ff3a00006a28001100200046
:103a3000cef907000000eb00a02488000000eb0096
:103a4000602488000040eb0032f0b7000080fa00ec
:103a5000000006000200fa00000f78002103210098
:103a60009140780000c2b30000c068000080fb00f5
:103a70000000e9004f00de00004078000080fa00fe
:103a8000000006000600fa00004f780012079800b8
:103a9000230798000080fa00000006000000fa00ea
:103aa0000080fa00000006000000fa00a5c8bf0070
:103ab0000080fa00000006000000fa0010c0b30009
:103ac0000080fa00000006000800fa0010028000e2
:103ad0004500de00674060000080fb003007980072
:103ae00090028000000f7800ff3ffc001102800070
:103af000f0f12f0080806000000c2000008070003a
:103b0000100288001e0078009002880000008800e3
:103b1000e07f80008000eb00010878005ac8bf00f9
:103b20000080fb000000ea004f00de002047980004
:103b3000e07f8000310020000108780090028000c2
:103b400020079800ff3ffc003e00900000407800f6
:103b5000674060000080fb00670060004500dd00fa
:103b600012028000f1f12f008100610000807000de
:103b7000100288002e00900090028800000088004b
:103b80002e4090000080fa00000006000000fa00bd
:103b9000818780000000eb00808f5000070032001a
:103ba00080878000900078000000280080806000fe
:103bb0000000eb00808f500002003a00100020004f
:103bc000010037000000eb00004078000080fa00a0
:103bd000000006000800fa00100280004500de0028
:103be000674060000080fb00300798009002800072
:103bf000000f7800ff3ffc0011028000f0f12f0061
:103c000080806000000c200000807000100288009e
:103c10001e0078009002880000008800e07f80008d
:103c20008000eb00010878005ac8bf000080fb004c
:103c300010079800e07f8000310020000108780024
:103c40009002800020079800ff3ffc003e0090009b
:103c500000407800674060000080fb006700600063
:103c60004500dd0012028000f1f12f0081006100ab
:103c700000807000100288002e00900090028800e2
:103c8000000088001e0090000080fa00000006007e
:103c90001a00fa00200f9800320f9800430f980086
:103ca0006000b80010079800210798000040eb0062
:103cb000004f78001b013700c6ff070060479800df
:103cc000ee4090000040eb0080cf5000e200320058
:103cd000100280004500de00674060000080fb00ad
:103ce000100f98009002800040079800ff3ffc00f2
:103cf00011028000f0f12f0080806000000c200095
:103d000000807000100288004e0090009002880031
:103d100000008800e07f80008000eb000108780050
:103d20006e4090000081fb00030020001e00900008
:103d3000ae00900002014000838148003e089000e0
:103d4000ce089000800f5100818f59004300390048
:103d5000ae0890000000eb00808f500013003a0086
:103d6000be0890001e009000008150005bc8bf009c
:103d70008080fb00e085200080804000c07f8000c4
:103d800010007800d1f70700c07f8000c17f80005d
:103d900011017800be0990009e00900081805100c2
:103da00081004100010878000b003700be08900038
:103db0001e009000808050005bc8bf000081fb00a7
:103dc000e0852000000041000101780080007800bb
:103dd0002e089000bdf70700b185200091407800c3
:103de0003e089000004178001e00900000407800de
:103df0000040510000c040005be8b700a1852000f2
:103e0000914078001e009000004178003e0890002c
:103e1000004078000040510000c040005ae8b70060
:103e2000b2428000c34280003e0a9000ce0a900059
:103e30001e009000ae0090000000520081805a00e9
:103e40000200400083804800b0428800c1428800e0
:103e500010c0b300004f780040003700ae0890005b
:103e60000000eb00808f500011003a006e4090007f
:103e70000081fb005bc8bf008080fb00e085200064
:103e800080804000c07f8000100078008ff707001e
:103e9000c17f8000c07f8000100178006e409000dc
:103ea0000080fb0000004100800878000f00370010
:103eb0006e4090008080fb005bc8bf000081fb006b
:103ec000e0852000000041000101780080007800ba
:103ed0002e0890007df707006e4090000080fb00e8
:103ee000ae08900000804000200f9800b1852000af
:103ef000914078006e40900000c040005be8b70041
:103f0000a1852000914078006e40900000c05000d4
:103f10005ae8b700b2428000c34280006e40900071
:103f20000080fb0001002000020040008380480068
:103f3000b0428800c14288006e4090000080fb00c3
:103f4000010020001e019000ae0190000200400020
:103f50008380480010079800210798009242800053
:103f6000a3428000b0428000c1428000800f510017
:103f7000818f590013003a006000b8009042880019
:103f8000a14288000040eb005ae8b7000040eb0077
:103f90005be8b7006000b800b0428800c14288000a
:103fa00010c0b3005de8b70003c4b300e285200091
:103fb0008040eb0010c0b300ac060700708788009b
:103fc00011003700b18520009140780000c4b30093
:103fd00080cf50000c003a000040eb005be8b700d7
:103fe0000040eb005ae8b70010c0b3005de8b7002e
:103ff00003c4b300e28520008040eb0010c0b30092
:104000009a06070070878800e07f8000310020005a
:10401000010878009002800050079800ff3ffc00e4
:104020001e08900000407800674060000080fb00a0
:10403000670060004500dd0012028000f1f12f00f2
:104040008100610000807000100288005e00900016
:104050009002880000008800100280004500de0009
:10406000674060000080fb00000f98009002800015
:1040700060079800ff3ffc0011028000f0f12f0064
:1040800080806000000c200000807000100288001a
:104090006e0090009002880000008800e07f8000a1
:1040a0008000eb0001087800c18520009140780075
:1040b0000040eb0080cf500006003200d185200088
:1040c000914078000040eb0080cf500001003200aa
:1040d00048000700e07f80003100200001087800e0
:1040e0009002800070079800ff3ffc000e089000cf
:1040f00000407800674060000080fb0067006000bf
:104100004500dd0012028000f1f12f008100610006
:1041100000807000100288007e00900090028800ed
:10412000000088009e4078000040eb0080cf5000e7
:10413000e1fe32000080fa00000006000800fa00ec
:104140000000eb00000f7800100280004500de0048
:10415000674060000080fb003007980090028000fc
:1041600010079800ff3ffc0011028000f0f12f00c3
:1041700080806000000c2000008070001002880029
:104180001e0090009002880000008800e07f800000
:104190008000eb0001087800e07f80003100200003
:1041a000010878009002800020079800ff3ffc0083
:1041b0003e00900000407800674060000080fb00f7
:1041c000670060004500dd0012028000f1f12f0061
:1041d0008100610000807000100288002e009000b5
:1041e00090028800000088001e0078000080fa001d
:1041f000000006000200fa000185200091407800ce
:104200000040eb0080cf50002c0032000004200062
:104210000100200090428800a14288000004200094
:10422000000f7800080037001e007800ee00400004
:10423000008520000080400010407800e1852000cb
:104240009e804000804878001e00ea001e0070003a
:104250004f00de00804078001e0fe9000040eb00b8
:1042600080cf5000f0ff3a000040eb005be8b70061
:1042700092428000a3428000000420000100200040
:10428000800f5100818f59000500360000c4b30033
:104290005ae8b7000040eb0050e8b70023003700b1
:1042a00090428000a1428000004078005ae8b700a8
:1042b00010c0b30050e8b7001c0037000040eb000e
:1042c0005be8b700b2428000c342800000042000d7
:1042d00001002000020140008381480090428000dc
:1042e000a1428000800f5100818f59000b003900de
:1042f00090428000a142800000417800b0428000de
:10430000c142800000407800004051005ae8b700e8
:1043100010c0b30050e8b7000400370000c4b30079
:104320005ae8b7000040eb0050e8b7000080fa0000
:10433000000006000000fa0055d0bf008080fb009e
:10434000b0ff2f008080600080012000808f50002f
:104350000a003a000040eb00a6e8b700418a2000be
:10436000914078000040eb0080cf500013003a00ed
:1043700010c0b300a5e8b7001000370055d0bf004b
:104380008080fb00b0ff2f008080600000012000d3
:10439000808f500009003a00d185200091407800bc
:1043a0000040eb0080cf50000200320091ff070078
:1043b0000200370010c0b3005ce8b7000080fa00cc
:1043c00000000600809fbe00821f78000800fa00ef
:1043d000100280004500de00674060000080fb00a6
:1043e0003007980090028000000f7800ff3ffc002b
:1043f00011028000f0f12f0080806000000c20008e
:1044000000807000100288001e0078009002880072
:1044100000008800e07f80008000eb000108780049
:1044200034c0bf000080fb0010079800000020008f
:104430000040780034e0b7008460a9001e009000be
:104440000040780034e0b700e07f800031002000b9
:10445000010878009002800020079800ff3ffc00d0
:104460003e00900000407800674060000080fb0044
:10447000670060004500dd0012028000f1f12f00ae
:104480008100610000807000100288002e00900002
:1044900090028800000088000080fa004f01780038
:1044a0004f00be00004006000000fa000080fa0045
:1044b000000006000000fa000080fa00000006007c
:1044c0000000fa000080fa00000006000000fa0078
:1044d0000080fa00000006000000fa00b80507009e
:1044e0000080fa00000006000000fa000080fa00d8
:1044f000000006000000fa00d1c1b30010c0b300f4
:104500000105070003c4b300e28520008040eb00f2
:1045100010c0b30055050700708788000000eb004d
:10452000808788000080fa00000006000000fa0082
:104530009444a80080702000c0878800c087800055
:104540000000e900c0878800c18780000000eb0000
:10455000808f5000f9ff3a009444a9000080fa00cf
:10456000000006000200fa00f00f2000702488000e
:10457000f00f200050248800f009200080248800db
:10458000f0092000602488008804a80000002100b1
:104590004800de00c02488009424a8009424a900c8
:1045a0000000eb00b02488000040eb00004f7800d2
:1045b000080037009e4078000180fb00c200dd004b
:1045c00000002100008140006000b8000089be00aa
:1045d0001e4fe8009e40780070c0b30080cf5000ae
:1045e000f4ff3600d000200050258800030037007b
:1045f000a048200031c0b3006505070050248000aa
:10460000e80060000000eb00808f5000f8ff3a00e7
:104610000040eb0046f0b700a10421000040eb0091
:10462000a0409800a00421008000eb002100980029
:1046300094a4a90080002100f08188000040eb00d4
:1046400033f0b7000040eb0032f0b7000080fa0012
:10465000000006000200fa002103210091407800ca
:104660000040eb0080cf500011003a000000eb004a
:10467000a02488000000eb006024880001003700bf
:104680009404a800a0248000e10060000000eb007a
:10469000808f5000faff320010c0b30032f0b70034
:1046a00020002000302588000001200040258800df
:1046b000210321009140780010c0b30080cf50004a
:1046c00008003a00f00f2000502488000000eb00a2
:1046d000602488008c04a8008c84a80020c0b3004b
:1046e00032f0b70000248000f00060000000eb0012
:1046f000808f50000600320010248000f00060001f
:104700000000eb00808f500001003200990007008c
:1047100040248000e20060000000eb00808f500029
:104720006c003a0050248000e10060000000eb00c3
:10473000808f50001400320060248000e10060008f
:104740000000eb00808f50000f00320085ff070053
:1047500040c0b30032f0b700a005210010808800ef
:1047600080c0b30000f0b70001d0bf00634060001c
:1047700001f0b7001100210091407800c0c8b300db
:1047800000c0700001f0b70050248000f00060000d
:104790000000eb00808f5000060032006024800093
:1047a000f00060000000eb00808f5000010032003c
:1047b0006800070050248000e40060000000eb0067
:1047c000808f50000900320060248000e400600007
:1047d0000000eb00808f50000400320038ff07001b
:1047e000a048200021c0b300e90407005124800044
:1047f00000082000808060000000eb00808f5000e7
:1048000007003200612480000008200080806000e2
:104810000000eb00808f50000100320034000700e0
:1048200050248000e20060000000eb00808f500008
:104830000800320060248000e20060000000eb000d
:10484000808f50000300320020ff0700f00f20008f
:1048500070248800210321009140780030c0b3000b
:1048600080cf50001d00360060248000e80060000a
:104870000000eb00808f50001b0032000040eb0076
:10488000004f78000e00370050248000e8006000e0
:104890000000eb00808f5000120032009024800056
:1048a0000040780055f0b700a048200031c0b300a8
:1048b000b7040700370007009efe07001e4fe80000
:1048c0009e40780030c0b30080cf5000eeff36002d
:1048d0000500370000000000030037000000000062
:1048e00001003700000000000080fa000000060010
:1048f0000000fa0050258000e20060000000eb009c
:10490000808f50000e003200b081800090409000f7
:1049100000c8b30080cf500008003a00f08180004a
:104920009040900040c8b30080cf500003003a0090
:10493000b1818000c0c8b30090409800aa24a900ab
:10494000a048200071c0b300910407000080fa0065
:10495000000006000000fa008284a800a0482000a1
:1049600041c0b3008a040700cffe07000080fa00b0
:10497000000006000000fa00cefe07008284a900b5
:104980000048200041c0b300810407000080fa0005
:10499000000006000000fa0055d0bf008080fb0038
:1049a000b0ff2f00808060000000eb00808f50007f
:1049b0001b003a0055d0bf000080fb004200de0023
:1049c000004078000080fb00c200dd0000002100f4
:1049d00000804000b0818800b0818000c0818800e4
:1049e0008103210080032100104078000024a200f0
:1049f00080487800b08180009000780000c02300db
:104a00008080600000402300808f500002003a0048
:104a10000d0007000a0037002300070008003700d8
:104a200055d0bf008080fb00b0ff2f008080600069
:104a300080002000808f500001003a002500070010
:104a40000080fa00000006000000fa00f0818000fb
:104a50009000780000002800808060000000eb00db
:104a6000808f500003003200f18180000040eb0095
:104a7000904098000040eb0042f0b7000040eb008f
:104a800043f0b7000000eb00408288000040eb00dc
:104a900046f0b700ac0007008ffe070038020700a1
:104aa0000080fa00000006000000fa003104210036
:104ab0009140780020c0b30080cf500002003a003f
:104ac000f302070001003700400007000080fa00f1
:104ad000000006000200fa00f0818000100078005b
:104ae0004e00de0061406000004f7800e1032100cd
:104af000e0032100104078000024a20080487800e4
:104b0000210321009140780080c0b30080cf500085
:104b10000d003a00a0052100204090000080fb001d
:104b2000b0248800b12480000000eb00808f50008a
:104b30000300320000c1b30032f0b70002003700ba
:104b400040c0b30032f0b70031042100914078003a
:104b500010c0b30080cf500019003a00f0818000ef
:104b6000210621001100980078020700210421008d
:104b70009140780020c0b30080cf500004003a007c
:104b8000f181800040c8b300904098000d003700cc
:104b90009e4078000040eb0080cf500004003a00b7
:104ba000f181800080ccb300904098000500370070
:104bb000f181800080c8b300904098000100370068
:104bc000020007000080fa00000006000400fa005e
:104bd000310421009140780020c0b30080cf500004
:104be0002f003a00a1248000000220008080600095
:104bf0000000eb00808f500029003200b08180005f
:104c00009040780080c0b30080cf500024003a006c
:104c1000b08180009000780000c023008080600098
:104c200000402300808f50001d003a00c0818000aa
:104c30009000780000002800808060000000eb00f9
:104c4000808f500016003a00c0818000a10521002d
:104c5000110098000040eb00004f78000b00370077
:104c60001e4078008080fb00a0052100808040006d
:104c70001e4078000081fb0020062100000041005a
:104c800010407800804878001e4fe8009e40780071
:104c900070c0b30080cf5000f1ff36001400370021
:104ca0000040eb0043f0b700c181800080c0b3003a
:104cb00080487800c0818000a10521001100980083
:104cc000c1818000c0c8b30090409800f18180008d
:104cd0000040eb0090409800f08180000020a2008e
:104ce000100798009e0090000040eb009040980054
:104cf000a004210090009000000820008080600047
:104d00000000eb00808f50000d003200a004210055
:104d1000b00090000000eb00808f500003003200d4
:104d2000a00421003000900000000100a004210038
:104d300010019000f1f72f00810061001100980030
:104d40000080fa00000006000000fa00a005210023
:104d50009000780000062000808060000000eb00da
:104d6000808f500040003a00a005210010409000c4
:104d70000080fb00cf80de00b20020000300200096
:104d8000820f5000838f580039003e000060010000
:104d90001a0037001b0037003700370019003700b2
:104da0003500370006003700090037002c003700b7
:104db0000b00370008003700140037001e003700d2
:104dc00046f0a80080c0b30032f0b7002b003700d7
:104dd000d5000700290037008202070027003700ae
:104de00030032100208288004610a80010c0b300c4
:104df00048f0b70046f0a800200037001501070072
:104e00001e0037001f0007001c003700a00521000e
:104e1000404090008080fb00400321000080400063
:104e2000208288004610a80010c0b30048f0b700e8
:104e300046f0a8001100370046f0a800a0052100a8
:104e4000404090000081fb00a00521002040900020
:104e500041032100810041008048780007003700ad
:104e6000a1fd070005003700000000000300370027
:104e70000000000001003700000000000080fa0080
:104e8000000006000600fa00a0052100a0409000e6
:104e900010c0b30080cf500011003a00a0052100df
:104ea00010007800ff0060000000eb00808f5000d1
:104eb0000b003a0046f0a800a005210090409000a9
:104ec00030c0b30080cf500003003a0010c0b300e0
:104ed00054f0b700020037000040eb0054f0b70078
:104ee000a0052100a04090000040eb0080cf5000c2
:104ef00054003a00a005210010007800ff00600077
:104f000020002000808f50004e003a00a0052100b4
:104f100020009000ef0060000000eb00808f500048
:104f20004800320046f0a8000040eb00004f780037
:104f3000400037000000210010079800a005210064
:104f400020009000004078006f4060000080fb006f
:104f50000000400080007800a005210020009000a3
:104f60004700de00614060000080fb0000804000e0
:104f700000004000800078001e4178000280fb00a5
:104f8000008040004200dd009e0090000080400054
:104f900010079800a00521009040900030c0b30099
:104fa00080cf500004003a009e00900040c8b3003b
:104fb000904098001e003700a005210020009000be
:104fc000004078006f4060000080fb00000040005f
:104fd00080007800a04a2000008040002007980050
:104fe0002e00900090007800d0ff2f00808060009d
:104ff0002e00900001087800a0052100a00090007c
:1050000000082000808060000000eb00808f5000ce
:10501000040032009e00900000c4b300904098004d
:10502000030037009e00900080ccb30090409800b1
:105030001e4fe8009e40780010c0b30080cf5000a3
:10504000bcff36000080fa00000006000a00fa00eb
:10505000a00a210010079800d0a78600300798000a
:105060003e009000104078000080fb004007980050
:10507000d0a78600200798000000eb00000f780002
:105080000b0037002e009000104078009e0090002a
:10509000804878001e0090000000e800100798008b
:1050a0002e0090000000e800200798001e0fe80086
:1050b0004e0090009e007800808f5000f1ff390074
:1050c0000080fa00000006000400fa0010079800b3
:1050d0000040eb00004f78000d0037009e40780044
:1050e0000180fb009e009000910078000000e80025
:1050f00000014000a00a21000000410001087800e2
:105100001e0090000080e800100798001e4fe80085
:105110009e407800d0c0b30080cf5000efff360033
:105120000080fa00000006000000fa00a00521003f
:105130009040780000c8b30080cf500043003a0090
:1051400000ccb30046f0b700a0052100304090002d
:105150000080fb0021002000810f50000b00320076
:1051600031002000810f5000160032001100200095
:10517000810f500032003a0000432d002082880049
:10518000200120004082880030003700a005210067
:10519000204090000080fb0000004000800078006c
:1051a000204f2d00008040001000780020828800f1
:1051b000208280000080e800100078004082880093
:1051c00022003700a0052100a040900030c0b300ad
:1051d00080cf50000c003a0046d0bf0046f0b70028
:1051e00046d0bf000004a00046f0b700a00a21008e
:1051f0002082880020828000104078000080fb0020
:105200004082880011003700a00521002040900056
:105210000080fb000000400080007800404f2d001f
:1052200000804000100078002082880020828000ea
:10523000104078000080fb004082880003003700a7
:105240000040eb0046f0b700000000000080fa00cc
:10525000000006000200fa000040eb0062f0b70018
:105260000040eb0063f0b700a005210010007800bb
:10527000004078007f4060000080fb0011002000ab
:10528000810f50001000320021002000810f5000db
:105290000f0032008000eb00810f50002b003a001d
:1052a00046f0a800410521009140780010c0b300ed
:1052b00080cf500022003a0062d0bf000014a0004e
:1052c00062f0b7002100370046f0a8001f00370049
:1052d00046f0a80000002100000f7800a005210082
:1052e00020009000004078006f4060000080fb00cc
:1052f0000000400080007800a00521002000900000
:105300004700de00614060000080fb00008040003c
:105310004300dd001e0f40001e007800104090008a
:105320000080fb00e40060000000eb00808f500074
:105330000500320010c0b30062f0b7000300370070
:1053400000000000010037000000000031828000f2
:1053500000082000808060000000eb00808f50007b
:105360000500320020062100208288004610a80097
:1053700020c0b30048f0b7000080fa00000006002b
:105380000000fa0094a4a9003182800000082000e7
:10539000808060000000eb00808f500026003a0003
:1053a000a004210090009000000820008080600090
:1053b0000000eb00808f50001200320020c0b300cc
:1053c00043f0b700f18180000040eb008048780096
:1053d000f181800080ccb30090409800c1818000b2
:1053e00080c0b30080487800c08180002106210081
:1053f00011009800c181800080ccb30090409800db
:1054000050003700c181800080c0b3008048780020
:10541000c0818000a105210011009800c181800099
:10542000c0c8b30090409800f181800040c8b3002c
:105430009040980043003700a004210090009000a5
:1054400000082000808060000000eb00808f50008a
:105450003c003a00a00521009000780000082000e0
:10546000808060000000eb00808f5000240032003c
:10547000a0052100b000900040828000808f500085
:1054800003003100a0052100300090004082880018
:105490002e00070010c0b30043f0b700c1818000a8
:1054a00080c0b30080487800c0818000a105210041
:1054b00011009800c181800000c8b300904098009e
:1054c000b181800080c0b30080487800b081800046
:1054d000a105210011009800b181800000c8b3002f
:1054e00090409800f0818000210621001100980072
:1054f000f181800080ccb30090409800110037000b
:1055000020c0b30043f0b700f18180000040eb0001
:1055100080487800f181800080ccb30090409800f2
:10552000c181800080c0b30080487800c0818000c5
:105530002106210011009800c181800080ccb300b9
:10554000904098000080fa00000006000200fa0077
:105550004182800070002000808f500012003e00c9
:1055600040828000000f78002104210091407800e3
:105570000040eb0080cf500003003a0010c0b300a1
:1055800042f0b7000a003700210421009140780062
:1055900010c0b30080cf500005003a0020c0b30017
:1055a00042f0b7000200370080002000000f7800b2
:1055b000f2818000f0818000904090001e409000b9
:1055c00000c0700010419800f18180001e407800fa
:1055d00080487800418280001e00780000805000e2
:1055e000408288002006210090828800308280005e
:1055f000e10060000000eb00808f50001d003a00c9
:105600000b003700928280002182800011407800d8
:10561000004978000200e800908288000100e8005c
:10562000208288001e0078000000e900000f78004a
:105630009e0078000000eb00808f5000f1ff3a00e0
:105640001100370092828000218280001140780092
:10565000004978000200e800908288000100e8001c
:10566000208288001e0078000000e900000f78000a
:1056700001003700000000009e0078000000eb00f1
:10568000808f5000efff3a000080fa000000060013
:105690000200fa00b0818000104f78001e407800b0
:1056a0008080fb00a004210020009000808f50002b
:1056b00004003600a004210020009000004f780074
:1056c00007003700a0042100a00090001e417800d0
:1056d0000280fb0080805000a0042100210098007f
:1056e0000040eb00104798000e003700a004210096
:1056f000900078001e4090000081fb0020062100f1
:105700000000410010407800804878008100e800e7
:10571000a0042100010878001e4090000040e8002d
:10572000104798009e4090001e40780080cf5000a7
:10573000eeff3900a0042100a00090000000eb0063
:10574000808f500015003200c181800080c0b300fe
:1057500080487800c0818000210621001100980057
:10576000b0818000900078000000240080806000fc
:105770000000eb00808f500004003a00c1818000df
:1057800080ccb3009040980014003700c1818000a5
:1057900080c8b3009040980010003700c08180009e
:1057a000a105210011009800a0042100b000900084
:1057b0000000eb00808f500003003200a0042100a5
:1057c0003000900000000100a004210010019000b2
:1057d000f1f72f0081006100110098000080fa00ad
:1057e000000006000000fa0046f0a80012002000a9
:1057f0008000eb00400321003bf10700a0052100e1
:105800002040900033f0b700a0052100a040900098
:105810000040eb0080cf500003003a0000c1b3000d
:1058200032f0b7000300370000c2b30032f0b70017
:1058300030fb07000080fa00000006000400fa00b8
:10584000204798003147980000002100000f7800a1
:105850002e4090000080fb00000040008000780097
:105860003e4090000080fb00008040004300dd00cf
:105870004200de004200dd001e0f40001e007800e6
:1058800010017800f1ff2700810061000108780015
:10589000be4090000040eb0080cf500007003a006f
:1058a0002e4090000080fb0080004000a0032100fb
:1058b000008040001e087800060037002e4090004f
:1058c0000080fb0080004000e003210000804000d9
:1058d0001e0878001e00780010017800f1ff2b00f0
:1058e00081006100010878009e007800648040001b
:1058f0001001780001002400810071000108780087
:105900000080fa00000006000400fa00204798001a
:10591000314798002e4090000080fb0000004000be
:1059200080007800a04a2000008f40003e40900098
:105930008080fb001e007800010878003e40900047
:105940000080fb00e80060000000eb00808f50004a
:10595000030032008040eb002e409000b7ff0700ac
:105960003e4090000080fb00e40060000000eb007f
:10597000808f50000300320011c0b3002e40900011
:10598000aeff07000080fa00000006000400fa00e5
:105990002047980031479800ae4090000040eb004f
:1059a00080cf50000d003a00c181800080c0b3005c
:1059b00080487800c0818000a10521001100980076
:1059c000c1818000c0c8b30090409800f181800080
:1059d00040c8b30090409800220037002e4090004d
:1059e0000080fb0000004000800078003e409000f6
:1059f0000080fb00008040004300dd008000780054
:105a000000002100008f40001e00780090409000b0
:105a100040c8b30000c070009e007800904098001d
:105a20002e4090000080fb000000400080007800c5
:105a30003e4090000080fb00008040004300dd00fd
:105a4000e400400000002100008f40001e007800ac
:105a50009040900040c8b30000c070009e007800e5
:105a6000904098000080fa00000006000800fa004c
:105a70002047980031479800220798006347980014
:105a8000be4090000040eb0080cf50000700320085
:105a90002e4090000080fb0080004000e0032100c9
:105aa00000804000100f7800060037002e40900064
:105ab0000080fb0080004000a00321000080400027
:105ac000100f78001e007800ae00900011009800c2
:105ad0001e007800ee409000014878001e0078001b
:105ae000104090000044b2009e0078009040980062
:105af0001e0078009040900080c8b30000c0700085
:105b00009e00780090409800be4090000040eb005e
:105b100080cf50000e003200e10321002e409000a3
:105b20000080fb000000400080804000e203210074
:105b30002e4090000080fb0000004000000041006b
:105b4000104078000024a200804878000d00370043
:105b5000a10321002e4090000080fb0000004000c7
:105b600080804000a20321002e4090000080fb00b6
:105b70000000400000004100104078000024a20016
:105b8000804878001e0078000080fa0000000600bf
:105b90000400fa00000f7800214798002e40900082
:105ba0000080fb00110020000008dd0000407800ac
:105bb0009e007800804878000080fa00000006000f
:105bc0000000fa00a005210010007800ff0060002e
:105bd00010002000808f500073003a00a0052100c3
:105be000c04090000040eb0080cf500070003a00b1
:105bf000a00521009040900060c0b30080cf50000d
:105c00002a003a00a0052100304090000080fb00ef
:105c100021022000810f50001200320031022000ca
:105c2000810f50001b00320011022000810f500034
:105c30001e003a00310321009140780010c0b300eb
:105c400080cf500016003a0040452d002082880089
:105c5000900020004082880000ccb30046f0b700de
:105c600012003700310321009140780010c0b300ca
:105c700080cf50000c003a00404d2d00208288005b
:105c8000d00120004082880000ccb30046f0b7006d
:105c90000600370000c8b30046f0b7000300370025
:105ca000000000000100370000000000a0052100f6
:105cb0009000780000062000808060000002200034
:105cc000808f50003c003a00a00521001040900059
:105cd0000080fb006101b9000080eb008080eb00d8
:105ce0000200400083804800a20020000300200042
:105cf000820f5000838f580030003e00006001008a
:105d00000a0037000d003700190037002b0037005c
:105d10002a00370029003700280037002700370005
:105d2000040037000c00370018003700250007007a
:105d3000220037002600070020003700200f210036
:105d400020828800100020004082880010ccb30020
:105d500046f0b7001900370000c8b30046f0b7009e
:105d6000a005210030409000f2f0b700130037008a
:105d7000300f21002082880010002000408288001f
:105d800010c8b30046f0b7000c00370000c8b300dd
:105d900046f0b700a005210020409000f3f0b700c6
:105da000000000000500370000000000030037007d
:105db0000000000001003700000000000080fa0031
:105dc000000006000000fa000080fa000000060053
:105dd0000000fa000080fa00000006000000fa004f
:105de0000080fa00000006000200fa00004f780070
:105df0000000eb00001388008820a9009820a9006b
:105e00009e4078000040eb0080cf5000030032003d
:105e1000b01320001013880002003700e0132000a8
:105e20001013880000002800001388000080fa008a
:105e3000000006000200fa00004f78009e40780043
:105e40000180fb0040138800000000000013800068
:105e5000e10060000000eb00808f5000fbff32008b
:105e600040138000004078000080fa000000060027
:105e70000000fa00d8a2a900dca2a800f122a90023
:105e8000f522a800d8e2a900dce2a800e802a900f7
:105e9000ec02a8000080fa00000006000c00fa00e6
:105ea00010079800210798003207980044079800cf
:105eb0005507980010c0b300104798001e009000ce
:105ec000ae0090000001be006000b800800f5100dd
:105ed000818f590003003d0000cfb300004f7800d0
:105ee0000200370010cfb300004f78000041eb00f4
:105ef00011c0b3001e407800f8000700104798005a
:105f00009e4090000040eb0080cf50002f003200f8
:105f100030c0b300c7ff07009e40780000cfb30039
:105f200080cf500004003a000e80e8000080e800b6
:105f300010407800bfff07000e80e8000000e80076
:105f400010407800bbff07000e80e800104078008a
:105f5000b8ff0700070037000040eb00b5ff07005f
:105f6000be009000804878003e0090000000e800ed
:105f700030079800ce0090005e0090000080700016
:105f80008000ea00008070004f00de0000427800d0
:105f90004e019000de0190000080eb008080eb005d
:105fa0000200400083804800400798005107980095
:105fb0000040eb00804f5200e7ff3a000041eb0049
:105fc0008040eb001e407800c40007001e40900097
:105fd0000080fa00000006001e00fa00889fbe0044
:105fe000200f9800310f9800420f9800540f98002e
:105ff000650f980010c0b300004f780010c0b300c8
:10600000104f98002e099000be0990006000b80063
:10601000800f5100818f59000b003d0000cfb3006d
:10602000604f980000102000100798000040eb001f
:10603000004f9800803e200001002000500798008b
:10604000610798000a00370010cfb300604f980036
:10605000000420001007980010c0b300004f980003
:10606000803e200001002000500798006107980042
:106070002e089000be089000000f9800110f9800a5
:106080007f0037001e0090006101b8005e0890009c
:10609000ee089000800f5100818f590003003e00f0
:1060a0009e00900021079800020037005e089000d3
:1060b000200798002e0090006101b8000e089000a3
:1060c0009e08900002024000838248001e0090005b
:1060d000010020000001be000400be00cdee07005c
:1060e0000004be000e0a90009e0a90001e00900060
:1060f000010020000001be000400be00c5ee070044
:10610000800f5400818f5c000f0032002e00900041
:106110006101b8000e0890009e0890000202400045
:10612000838248001e009000010020000001be0094
:106130000400be00c7ee070000007800ae0090002b
:1061400000805000200798009e4890000040eb001f
:1061500080cf5000030032000040eb00104f980049
:10616000050037005e019000ee0190006e4890003f
:10617000c4000700004f78009e4078000040eb000c
:1061800080cf50003e00320012c0b30011c0b300f7
:106190006e48900051000700004f78009e40780044
:1061a0000040eb0080cf50003500320020c0b3002b
:1061b00020ff07008e4890000040eb0080cf500089
:1061c00004003a00700047000080e80010407800aa
:1061d00018ff0700700047000000e800104078003a
:1061e00014ff0700700047001040780011ff0700ff
:1061f0000000eb0030079800090037004e089000bf
:1062000010407800ce0890008100e800410f98000f
:1062100008ff07003e0090000000e80030079800eb
:10622000be0090002e009000808f5000f3ff3900d8
:106230000041eb008040eb006e4890002700070013
:106240002e009000010020005e099000ee099000f1
:106250000000510081805900500f9800610f980094
:106260002e0090006101b8000e0890009e0890007a
:106270000200400083804800000f9800110f980032
:106280009e4078000040eb0080cf500006003200b6
:106290005e099000ee0990006000b800800f510088
:1062a000818f590077ff3a009e4078000040eb0054
:1062b00080cf5000050032005e019000ee0190009a
:1062c0006e4890006f000700004f78001e40780075
:1062d0004f04be000080fa00000006000600fa002d
:1062e00020479800314798004247980010c0b300fb
:1062f000004f78000040eb0010479800ae4090003f
:1063000000cfb30080cf500003003a0010c0b300ac
:106310001047980009003700ae40900010cfb3003e
:1063200080cf500003003a000040eb001047980077
:10633000020037000040eb00004f7800dca2a8000c
:10634000dce2a800f522a800ec02a8009e4078003c
:106350000040eb0080cf50002c003200be40900087
:106360000040eb0080cf5000280032009e4090009b
:106370000040eb0080cf50000900320010c0b30095
:1063800099fe0700f522a900ce4090000040eb00e6
:1063900080cf50000a003200ec02a800080037004d
:1063a0000040eb0090fe0700dca2a900ce40900068
:1063b0000040eb0080cf500001003200dce2a8007a
:1063c000ce4090000040eb0080cf50000f00320024
:1063d00060c0b30097fe07009e4090000040eb00b5
:1063e00080cf500005003200f522a8000000000018
:1063f00000000000f522a90004003700dca2a8007c
:106400000000000000000000dca2a9001e4078008f
:106410000080fa00000006000600fa0020479800fd
:10642000210798000040eb00004f78000041eb008e
:1064300011c0b3002e409000a8ff07008040eb0081
:10644000814f50000c00320050c0b30079fe0700ad
:106450000040eb0077fe0700ae0090008048780017
:1064600010c0b300004f78000041eb008040eb000b
:106470002e40900099ff07001e4078000080fa002f
:10648000000006000a00fa00404798003207980012
:10649000430798000040eb00004f780010c0b300a5
:1064a000104798000c0037000e80e800800078004c
:1064b0004e409000d8ff0700104798001e00900043
:1064c000e10060000000eb00808f500002003a0005
:1064d00010c0b300004f78009e4078000040eb00f1
:1064e00080cf500016003a00be0090004e00900091
:1064f000008070008000ea00008070004f00de0025
:10650000004278003e019000ce0190000080eb0038
:106510008080eb0002004000838048003007980034
:10652000410798000040eb00804f52000400320009
:106530009e4090000040eb0080cf5000daff3a0010
:106540003e019000ce0190006000b800800f510025
:10655000818f590002003a000040eb00104798007c
:106560001e4090000080fa00000006000000fa00c3
:106570002174200062042000730520008248780006
:106580008348780042c7a9000080fa000000060096
:106590000000fa002174200062042000730520002e
:1065a000824878008348780042c7a8000080fa003b
:1065b000000006000000fa00ecff070051368000e2
:1065c00000fc2f00008060003000b30050368800cf
:1065d0002135800000fc2f00008060001001b30016
:1065e00020358800c1368000f00f2c0080806000cc
:1065f0000070200000807000c0368800b136800036
:10660000f00f2c008080600000802000008070006f
:10661000b03688004135800000fc2f00008060000b
:106620006001b3004035880041358000f00f2c0038
:10663000808060000070210000807000403588007c
:1066400051368000f00f2c008080600000a02000f8
:1066500000807000503688001136800000fc2f004a
:1066600000806000b000b300103688006135800003
:1066700000fc2f0000806000c000b300603588007f
:106680009136800000fc2f00008060002001b300e4
:1066900090368800e136800000fc2f00008060000a
:1066a0003001b300e0368800b9ff07000080fa002f
:1066b000000006000000fa0000002400607f88004f
:1066c000607f8000707f8800607f80000030b000b5
:1066d000407f8800407f80000010b000507f88001d
:1066e000507f80000008b000807f8800807f80009d
:1066f0000004b000907f8800907f80000004b0000c
:10670000307f88000080fa00000006000400fa00d4
:106710000000eb0010079800807f8000020420003a
:106720000300200057f30700807f80009e00900048
:106730000100400010407800beefb7000100e80003
:1067400010079800becfbf000080fb006101b900b8
:10675000c0fd2f00f1ff2f000200400083804800a1
:106760006209200003002000820f5000838f580030
:1067700078013e0000600100a1003700750137007c
:10678000740137007301370072013700710137005f
:10679000a60037006f0137006e0137006d0137002a
:1067a0006c0137006b0137006a013700690137005f
:1067b000680137006701370066013700650137005f
:1067c000640137006301370062013700610137005f
:1067d000600137005f0137005e0137005d0137005f
:1067e0005c0137005b0137005a0137007900370040
:1067f0005b0137005701370056013700550137005c
:10680000540137005301370052013700510137005e
:10681000500137004f0137004e0137004d0137005e
:106820004c0137004b0137004a013700490137005e
:10683000480137004701370046013700450137005e
:10684000440137004301370042013700410137005e
:10685000430137003f0137003e0137003d0137005b
:106860003c0137003b0137003a013700390137005e
:10687000380137003701370036013700350137005e
:10688000340137003301370032013700310137005e
:10689000300137002f0137002e0137002d0137005e
:1068a0002c0137002b0137002a013700290137005e
:1068b000280137002701370026013700250137005e
:1068c000240137002301370022013700210137005e
:1068d000200137001f0137001e0137001d0137005e
:1068e0001c0137001b0137001a013700190137005e
:1068f000180137001701370016013700150137005e
:10690000140137001301370012013700110137005d
:10691000100137000f0137000e0137000d0137005d
:106920000c0137000b0137000a013700090137005d
:10693000080137000701370006013700050137005d
:10694000040137000301370002013700010137005d
:1069500000013700ff003700fe003700fd00370060
:10696000fc003700fb0037003b0037004d003700cc
:106970005f003700600037006100370063003700b8
:10698000700037008400370085003700870037002b
:1069900088003700890037008a003700e0003700a0
:1069a000dd00370089003700e6003700df003700e0
:1069b000e1003700ea003700e9003700e100370066
:1069c000e7003700e300370082003700c2003700dd
:1069d000cf003700817f80001e00900000804000c3
:1069e000904078000040eb0080cf500001003a005a
:1069f000ee0d07000004200010079800d9003700b2
:106a0000817f80001e009000008040009040780050
:106a10000040eb0080cf500001003a00140e070048
:106a20000004200010079800ce003700817f80000e
:106a30001e00900000804000904078000040eb0075
:106a400080cf500001003a002d0e07000004200006
:106a500010079800c3003700817f80001e0090005f
:106a600000804000104078008080fb00827f800022
:106a70001e0090000000e800000041001040780077
:106a80000080fb004800dd00008f40001e00780001
:106a900034f107001e0090000080e8001007980005
:106aa000b0003700817f80001e0090000080400011
:106ab000104078008080fb00827f80001e009000e4
:106ac0000000e80000004100104078000080fb005a
:106ad0004800dd00008f40001e007800a1f0070094
:106ae0001e0090000080e800100798009d0037000d
:106af000960707009b0037007504070099003700d0
:106b00000e80e800e307070096003700817f8000d1
:106b10001e0090000000e8000080400090407800d7
:106b2000827f80001e00900000004100104078002d
:106b30009d0807001e0090000080e80010079800e4
:106b400088003700817f80001e0090000080400098
:106b500010407800827f80009e0090008100e80055
:106b600001014100804078000200780083000700a6
:106b7000817f80001e00900000804000104078005f
:106b80008080fb001e009000008040000000e800b4
:106b90001007980073003700f508070071003700f0
:106ba0000e80e800fb0807006e0037003f04070076
:106bb0006c003700720507006a003700a307070062
:106bc000680037002809070066003700a2080700a0
:106bd00064003700807f80009e009000010040002c
:106be00010407800c9efb7000100e80010079800d6
:106bf000807f80009e0090000100400010407800df
:106c0000beefb7000100e80010079800807f800009
:106c10009e0090000100400010407800c0efb700d7
:106c20000100e80010079800807f80009e0090001f
:106c30000100400010407800c2efb7000100e800fa
:106c400010079800807f80009e00900001004000a7
:106c500010407800c3efb7000100e800100798006b
:106c6000807f80009e00900001004000104078006e
:106c7000c4efb7000100e80010079800807f800093
:106c80009e0090000100400010407800c5efb70062
:106c90000100e80010079800807f80009e009000af
:106ca0000100400010407800c8efb7000100e80084
:106cb00010079800807f80009e0090000100400037
