:020000040000FA
:0600000085EF07F012007D
:0600080004EF10F01200ED
:060018000CEF10F01200D5
:02002A000000D4
:04002C00040110516A
:10003000600BE842E842E842E842E842000901E099
:1000400055D01151070A51E00B0A4FE0070A40E072
:10005000010A2CE00B0A28E0020A26E0030A22E04B
:10006000080A12E0010A0EE00F0A0AE0030A01E0A2
:100070003CD00001010EB06F0001040EB76F36D006
:1000800036D834D090D832D00001010EB06F0001C4
:10009000B90EB16F000EB26F0001B8930001010EEE
:1000A000B56F24D0A8D822D0F5D820D00001010EF9
:1000B000B06F040114510001B16FB26BBA0EB127D9
:1000C000000EB2230001B8930001010EB56F0ED0EF
:1000D0000001010EB06F04011451EA6ABA0FE96E13
:1000E000000EEA2212C4EFFF01D000D01200800EF1
:1000F0000401105D57E11351030A34E0010A10E0D6
:10010000030A01E04DD00001010EB06F0001600E46
:10011000B16F0C0EB26F120E0001B56FB66B40D00E
:100120000001010EB06F04011251F66EF76AD8900B
:10013000F636F7369E0EF6260D0EF7220900F5CF9D
:10014000B1F00A00F5CFB2F0020E0001F76AB12556
:10015000F66EB251F7220900F5CFB5F00A00F5CFDF
:10016000B6F01ED00001010EB06F04011251F66E00
:10017000F76AD890F636F736A20EF6260D0EF7225D
:100180000900F5CFB1F00A00F5CFB2F0B1C0F6FF2B
:10019000B2C0F7FF0800F5500001B56FB66B00D094
:1001A0000001B88312000001010EB06F0F0EE66E61
:1001B000710EE66E0F0EE66E1BEC06F0E552E55290
:1001C000E552010EE66EBA0EE66E000EE66E1BEC10
:1001D00006F0E552E552E55212C4B9F0040112519D
:1001E00004E10001050EB76F05D00001060EB76FE0
:1001F000E7EC04F012000401186B196B04011051B4
:100200001F0B020A15E0030A0FE0010A01E034D0D7
:100210000001010EB06F02D0040118810001B8A1E5
:1002200002D00401188328D00001010EB06F24D041
:100230000001010EB06F040114510F0B080DF350B3
:10024000016A000F006E040E01221451800B01E0C0
:10025000010E040DF35000010024B36F000E0120C5
:10026000B46FB3C0E9FFB4C0EAFFEF50040B03E082
:100270000401010E186F00D00001B0050AE1000171
:10028000180EB16F040EB26F0001B8930001020E98
:10029000B56F12000401120510E110511F0B000987
:1002A0000CE10001010EB06F030E0401115D03E1CA
:1002B0000001B88102D00001B891040112513AE165
:1002C00010511F0B020836E114510F0B000932E0E8
:1002D0000001010EB06F040114510F0B080DF35013
:1002E000016A000F006E040E01221451800B01E020
:1002F000010E040DF35000010024B36F000E012025
:10030000B46F030E0401115D07E1840EB3C0E9FF71
:10031000B4C0EAFFEF6E0ED014AF06D0B3C0E9FF51
:10032000B4C0EAFFEF6A06D0880EB3C0E9FFB4C0DC
:06033000EAFFEF6E12006F
:0A0336006C500BE1040100513C0B78
:10034000E842E8420D0802E108D801D03CD804D0C8
:10035000040E6C5C01E147D81200D9CFE6FFE1CF73
:10036000D9FFE6520001AF6BB06BB56BB66B16EC04
:1003700000F0DF6ADF50006E016A010E005C000EC3
:1003800001581BE20001B05101E017D0F76ADF34D9
:10039000FE0BF736F66EAC0EF6260D0EF7220900B0
:1003A000F5CF00F00800F5CF01F004D001C0FAFF4E
:1003B0000050F96EFBDFDF2ADDD7D5D8E552E552D4
:1003C000E7CFD9FF1200020E0001AF5D0AE192D81B
:1003D000040100BD03D0C80E006F02D0880E006F6C
:1003E00001D007D91200040E0001B75D0AE112C462
:1003F0006EFF6E50000803E2050EB76F02D0030EC9
:10040000B76F0001AF050AE10BD8040104BD03D0AA
:10041000C80E046F02D0880E046F01D0EAD8120013
:10042000D9CFE6FFE1CFD9FF020EE1260001080E89
:10043000B55D000EB65905E2B5C0DEFFB6C0DDFF02
:1004400003D0080EDE6EDD6A040104930491010EF0
:10045000DB500413DFCF05F4000EDB500001B55F65
:10046000010EDB50B65B180EB36F040EB46F0001C3
:10047000B8A31ED0D9CFE9FFDACFEAFFEE50ED10D6
:1004800016E0B1C0F6FFB2C0F7FF0800F550B3C0E8
:10049000E9FFB4C0EAFFEF6E0001B32B000EB423F6
:1004A000B12BB223DF06010E01E2DB06E3D71CD03D
:1004B000D9CFE9FFDACFEAFFEE50ED1015E0B1C079
:1004C000E9FFB2C0EAFFEF50B3C0E9FFB4C0EAFFF2
:1004D000EF6E0001B32B000EB423B12BB223DF0665
:1004E000010E01E2DB06E4D7D9CFE1FFE552E7CF09
:1004F000D9FF1200D9CFE6FFE1CFD9FF020EE126E6
:10050000030E04010015E76E010EE7CFDBFF01C407
:10051000DFFFDE500001B527DD50B623180EB16FA6
:10052000040EB26FD9CFE9FFDACFEAFFEE50ED103B
:1005300014E0B1C0E9FFB2C0EAFFEF50B3C0E9FF79
:10054000B4C0EAFFEF6EB32B000EB423B12BB2237D
:10055000DF06010E01E2DB06E5D7D9CFE1FFE55268
:10056000E7CFD9FF12006D980001B0510CE10401F2
:10057000080E016F100E026F040E036F840E006FE1
:100580000401046F35D0040110AF22D00001B55131
:100590000401165D0001B6510401175904E216C4A6
:1005A000B5F017C4B6F03CDF0001010EAF6F0401D7
:1005B000080E016F100E026F040E036F800E006FA5
:1005C0000401180E066F040E076FC80E046F10D0DA
:1005D0000001020EAF6F0401056BC80E046F040129
:1005E000080E016F180E026F040E036FC80E006F25
:1005F00012000001AF6B0401080E016F100E026FB4
:0E060000040E036F880E006F0401046B1200DD
:02060E00550E87
:10061000A76EAA0EA76EA68212000001420E6A6F94
:10062000020E6B6F010E6C6F12000001606B665161
:10063000605D1EE260C000F0016A026A675100243A
:10064000F36E68510120F46E69510220F86EF4CF08
:10065000F7FFF3CFF6FF0800F5CF61F06051EA6ACB
:100660006A0FE96E000EEA2261C0EFFF602BDFD750
:10067000F86A1200840EA66E0001606B6651605D20
:1006800027E26051EA6A6A0FE96E000EEA22EFCFB4
:1006900003F060C000F0016A026A67510024F36E43
:1006A00068510120F46E69510220F86EF4CFF7FF13
:1006B000F3CFF6FF03C0F5FF0C001F0E60151F08F7
:1006C00003E06605605D01E1A2DF0001602BD6D783
:1006D00012000001606B6651605D20E2940EA66E10
:1006E0006051006E016A060ED89000360136E804AB
:1006F000FBE1026A01BE0268000167510024F36E4B
:1007000068510120F46E69510220F86EF4CFF7FFB2
:10071000F3CFF6FF7CDF0001602BDDD7F86A120013
:10072000A66A0001606B6651605D0EE2675160254C
:10073000A96EA6806051EA6A6A0FE96E000EEA228D
:10074000A8CFEFFF602BEFD712000001606B66515E
:10075000605D13E267516025A96E6051EA6A6A0F15
:10076000E96E000EEA22EF50A86E040EA66E4FDF6F
:10077000A6B2FED70001602BEAD71200C40EA66E07
:100780000001606B6651605D20E26051EA6A6A0FA9
:10079000E96E000EEA22EFCF03F060C000F0016ABC
:1007A000026A67510024F36E68510120F46E6951AA
:1007B0000220F86EF4CFF7FFF3CFF6FF03C0F5FF8A
:1007C0000C0025DF0001602BDDD7F86A1200400E17
:1007D000E66E650EE66E000EE66E36EC05F0E5524E
:1007E000E552E552000870E20001606B00016551BE
:1007F000FF0A57E0FA0A50E0010A3BE0070A34E03A
:10080000010A2DE0030A18E0070A16E0700A01E069
:100810005AD003DF0001040E606F04010CBFFDD746
:10082000400EE66E650EE66E000EE66EFCEC04F021
:10083000E552E552E55248D0F8DE050E000160278A
:1008400004010CBFFDD7400EE66E650EE66E000E8D
:10085000E66EFCEC04F0E552E552E55235D00ADFD5
:100860000001010E606F30D034DF0001010E606FB7
:100870002BD056DF050E0001602704010CBFFDD709
:10088000400EE66E650EE66E000EE66EFCEC04F0C1
:10089000E552E552E55218D058DF0001010E606FB5
:1008A00013D093EC05F00001636B646B00016307E8
:1008B000000E645B00016351641103E0000000005E
:0A08C000F5D7FF0001D000D01200B0
:0608CA00040110511F0B98
:1008D000010801E079D0145101E076D0060E115DD7
:1008E0002EE11351230A28E0010A13E0030A01E074
:1008F00024D00001020EB06F0001B90505E100012E
:10090000840EB16F0C0EB26F090E0001B56FB66B9D
:1009100014D00001020EB06F0001B90505E100011D
:10092000810EB16F0D0EB26F0001B90504E11D0E0D
:100930000001B56FB66B01D000D00001B88304018F
:100940001051600BE842E842E842E842E842010800
:1009500001E03AD011510B0A31E0080A21E0090AFE
:1009600019E0080A09E00B0A05E0080A01E02CD0AA
:100970002CD82AD02BD828D00001020EB06F00014D
:10098000BB0EB16F000EB26F0001B8930001010EF3
:10099000B56F1AD00001020EB06F13C4BBF014D0B3
:1009A0000001020EB06F0001BC0EB16F000EB26FFD
:1009B0000001B8930001010EB56F06D00001020ED0
:1009C000B06F12C4BCF000D012001200120000017F
:1009D000BD6B1E0E716E0401400E096F200E0A6F72
:1009E000040E0B6F880E086F0401600E0E6F040E6C
:1009F0000F6F400E0C6F1200D9CFE6FFE1CFD9FF89
:100A0000E652FC0EDB50400805E2400EF36EFC0E91
:100A1000F3CFDBFFDF6AFC0EDB50DF5C19E2DF5057
:100A2000E76EFD0EDBCFE9FFFE0EDBCFEAFFE750FE
:100A3000E926000EEA22EF50E66EDF50EA6A600F08
:100A4000E96E040EEA22E552E750EF6EDF2AE3D7A3
:100A5000FC0EDBCF0DF4400E04010C170C7D880E4C
:100A60000C13E552E552E7CFD9FF1200D9CFE6FFCC
:100A7000E1CFD9FF0001BD6B040108BF30D0FC0EEF
:100A8000DBCF00F00951D880005403E2FC0E09C40A
:100A9000DBFF0001BD6BFC0EDB50BD5D19E2BD51FB
:100AA000EA6A200FE96E040EEA22EF50E66EBD51AD
:100AB000E76EFD0EDBCFE9FFFE0EDBCFEAFFE7506E
:100AC000E926000EEA22E552E750EF6EBD2BE3D790
:100AD0000401400E096F0817087D880E08130001F5
:0C0AE000BD5100D0E552E7CFD9FF120055
:040AEC006DA60FD80C
:100AF00002D06DB613D80001B70508E16DBA06D073
:100B0000686A696A69806988020EB76F12006D6A47
:100B1000696A6D860001010EB76F12006D6A696A1D
:100B20000001B76B12008EEF05F00001B75101E133
:100B30003AD06850040B04E06950040B01E038D847
:100B40006DB231D06850010B04E06950010B01E037
:100B500050D86850100B04E06950100B01E024D805
:100B60006850400B04E06950400B01E037D86850F2
:100B7000200B04E06950200B01E032D86850020BD2
:100B800004E06950020B01E032D8030E0001B75DAA
:100B900001E209D06850080B06E06950080B03E039
:100BA0009BEC01F068961200698468986D821200CF
:100BB0006D926994689412000001B8A10ED0F8DF1C
:100BC0006D840001080EBE6F070EBF6FBE07000EDA
:100BD000BF5BBE51BF11FAE16D941200689C120018
:100BE00070A003D0F9EC02F07090689A120068923D
:100BF00012006A6A686A9F0E6B6E7B0E696E6E6A7F
:100C00000F0EE66E710EE66E0F0EE66E14D8E5520C
:100C1000E552E552160E706E68A602D06896FCD7B3
:100C20006D98F9EC02F00001B8910001B96B000178
:100C3000030EB76F1200D9CFE6FFE1CFD9FFFD0E4B
:100C4000DBCFE9FFFE0EDBCFEAFFFC0EDB5004E05A
:100C5000EE6AFC0EDB06F9D7E552E7CFD9FF1200AA
:100C60001201000200000008D80433000100010254
:100C70000302090229000101028032090400000276
:100C800003000000092101000001221D0007058169
:100C90000340000107050103400001090220000193
:100CA000020480320904000002FF000000070581F1
:100CB0000340000107050103400001040309043457
:100CC000034D006900630072006F006300680069F3
:100CD000007000200054006500630068006E006F23
:100CE000006C006F0067007900200049006E00630F
:100CF000002E0048035000490043006B0069007457
:100D0000002000320020004D006900630072006F77
:100D10000063006F006E00740072006F006C006C66
:100D200000650072002000500072006F00670072C2
:100D30000061006D006D00650072001603500049EF
:100D400000430031003800460032003500350030E5
:100D50000030035000490043006B0069007400201C
:100D6000003200200043006F006E006600670075CF
:100D70000072006100740069006F006E0020003294
:100D8000000600FF0901A10119012940150026FFF5
:100D900000750895408102190129409102C0720C2A
:0E0DA0009B0CBB0CBF0CF30C3B0D510DCA0895
:020DAE002A0E0B
:100DB000F66E000EF76E000EF86E00010900F55099
:100DC000AA6F0900F550AB6F03E1AA6701D03DD0CF
:100DD0000900F550A56F0900F550A66F0900F55000
:100DE000A76F09000900F550E96E0900F550EA6E99
:100DF000090009000900F550A86F0900F550A96F16
:100E000009000900F6CFACF0F7CFADF0F8CFAEF0A7
:100E1000A5C0F6FFA6C0F7FFA7C0F8FF0001A853C2
:100E200002E1A95307E00900F550EE6EA807F8E2C9
:100E3000A907F9D7ACC0F6FFADC0F7FFAEC0F8FF09
:0C0E40000001AA07000EAB5BBFD7120038
:040E4C00D9CFE6FF15
:100E5000E1CFD9FF030EE126938A818AF19E580ED5
:100E6000E66E6EEC07F0E55281AA0DD0FE0EF66E2E
:100E70007F0EF76EF86A0800F550DF6E550EDF5CE6
:100E800002E100EF10F018D822D8E7EC03F0D950B7
:100E9000010FE96EDACFEAFFEE50ED1001E18B7041
:100EA000010EDB06020E01E2DB06EED7D9CFE1FF31
:100EB000E552E7CFD9FF1200140E6F6E0001B76B39
:100EC0000001B86B0001B96B8B909490120076EC26
:0C0ED00005F06FBE02D095EC05F012009A
:040EDC00FF0EE350D2
:100EE000076EEF0E01D0F30EE76EE72E75EF07F0F9
:100EF0000C0E066EE76AE72E7BEF07F0062E7AEF00
:0A0F000007F0072E73EF07F0120050
:060F0A0013EE00F023EEDF
:100F100000F0F86A059CD7EC06F026EC07F0FDD748
:020F20001200BD
:020000040030CA
:0100000024DB
:010001000EF0
:0100020038C5
:010003001EDE
:0100050001F9
:010006008178
:010008000FE8
:01000900C036
:01000A000EE7
:01000B00A054
:01000C000FE4
:01000D0040B2
:00000001FF
