:020000040000fa
:020000040001f9
:08e040001e3f04000100000076
:020000040000fa
:020000040001f9
:10e000009aa900009901000008200000010000000a
:10e01000000000000040000000000000000a0000b6
:020000040000fa
:020000040001f9
:10e04800a6f5040000000000500e040001000000c6
:10e05800540e040001000000580e040001000000e6
:10e068005c0e040001000000a6f50400000000009a
:10e07800a6f5040000000000a6f50400000000005a
:10e08800a6f5040000000000a6f50400000000004a
:10e09800a6f5040000000000182304000100000099
:10e0a800a6f5040000000000a6f50400000000002a
:10e0b800a6f5040000000000700e04000100000036
:10e0c800a6f5040000000000a6f50400000000000a
:10e0d800a6f5040000000000a6f5040000000000fa
:10e0e800a6f5040000000000501a0400010000001a
:10e0f800a6f5040000000000a6f5040000000000da
:10e10800a6f5040000000000a6f5040000000000c9
:10e11800a6f50400000000005c0f040001000000e8
:10e12800a6f5040000000000a6f5040000000000a9
:10e13800a6f5040000000000a6f504000000000099
:10e14800a6f5040000000000a6f504000000000089
:10e15800a6f5040000000000a6f504000000000079
:10e16800320f040001000000a6f5040000000000c2
:10e17800a6f5040000000000a6f504000000000059
:10e18800a6f5040000000000a6f504000000000049
:10e19800a6f5040000000000a6f504000000000039
:10e1a800a6f5040000000000a6f504000000000029
:10e1b800a6f5040000000000a6f504000000000019
:10e1c800a6f5040000000000a6f504000000000009
:10e1d800a6f5040000000000a6f5040000000000f9
:10e1e800a6f5040000000000a6f5040000000000e9
:10e1f800a6f5040000000000a6f5040000000000d9
:10e20800a6f5040000000000a6f5040000000000c8
:10e21800a6f5040000000000a6f5040000000000b8
:10e22800a6f5040000000000a6f5040000000000a8
:10e23800a6f5040000000000a6f504000000000098
:10e24800a6f5040000000000a6f504000000000088
:10e25800a6f5040000000000a6f504000000000078
:10e26800a6f5040000000000a6f504000000000068
:10e27800a6f5040000000000a6f504000000000058
:10e28800a6f5040000000000a6f504000000000048
:10e29800a6f5040000000000a6f504000000000038
:10e2a800a6f5040000000000a6f504000000000028
:10e2b800a6f5040000000000a6f504000000000018
:10e2c800a6f5040000000000a6f504000000000008
:10e2d800a6f5040000000000a6f5040000000000f8
:10e2e800a6f5040000000000a6f5040000000000e8
:10e2f800a6f5040000000000a6f5040000000000d8
:10e30800a6f5040000000000a6f5040000000000c7
:10e31800a6f5040000000000a6f5040000000000b7
:10e32800a6f5040000000000a6f5040000000000a7
:10e33800d00e040001000000a6f504000000000053
:10e34800a6f5040000000000a6f504000000000087
:10e35800a6f5040000000000a6f504000000000077
:10e36800a6f5040000000000a6f504000000000067
:10e37800a6f5040000000000a6f504000000000057
:10e38800a6f5040000000000a6f504000000000047
:10e39800a6f5040000000000a6f504000000000037
:10e3a800a6f5040000000000a6f504000000000027
:10e3b800a6f5040000000000a6f504000000000017
:10e3c800a6f5040000000000a6f504000000000007
:10e3d800a6f5040000000000a6f5040000000000f7
:10e3e800a6f5040000000000a6f5040000000000e7
:10e3f800a6f5040000000000a6f5040000000000d7
:10e40800a6f5040000000000a6f5040000000000c6
:10e41800a6f5040000000000a6f5040000000000b6
:10e42800a6f5040000000000a6f5040000000000a6
:020000040000fa
:020000040001f9
:10e440006a1f040001000000480e040001000000e3
:10e450008e1d0400010000008001780002003700da
:10e46000815978000201e9000200e000fcff3a0057
:10e47000000006000b003700104278009141780040
:10e48000834f5200040032000081eb000700390086
:10e4900012002000050037000000e8008100e800bd
:10e4a0000201e9000200e000f3ff3a0002007800f8
:10e4b000000006008001780002003700b1597800a2
:10e4c0000201e9000200e000fcff3a000000060043
:10e4d0006022b800060220000000d0008180d20037
:10e4e0000482d2008582d2000000a0000202520005
:10e4f00083825a00030031000202420083824a00f4
:10e500000000a1000603e900f3ff3a000000060046
:10e51000efff07000400be0000000600889fbe0059
:10e520008a9fbe00010578000100e000040035006c
:10e5300008003c000000e000200032000500370029
:10e5400060001000e080180002003b0001f02c0089
:10e550001a0037000004be006011b8006b092000eb
:10e560000982cf00020039000882cf000441b000c8
:10e57000694252000e00320008003b0082817100a7
:10e58000610164008904d1000884d3008b05e80090
:10e590000442e800f9ff3a0005003700080444008f
:10e5a00089844c008b05e9000442e900fbff3a0036
:10e5b000f80007000af0a70001f0a0004f05be0018
:10e5c0004f04be0000000600889fbe008a9fbe0068
:10e5d0008c1f7800150107001c01330003866c00b6
:10e5e0006450e100240032006420e1002700320082
:10e5f0006150e100220032006120e1002100320080
:10e600008b854200eb07b1000134b800003ab80036
:10e610000804420089844a00013ab8000030b8007a
:10e620008880400009014a000400330000004000d7
:10e6300081804800020149008b05e900c909dd001d
:10e64000830170000100320013002000c814de00b6
:10e650004814dd004709de001200b200c808de00e1
:10e6600008847000cb00070001f0a1000cf0a700a7
:10e6700001f0a000fe0037006120e100000132003f
:10e680000801be000200be00f7ff37006150e10044
:10e69000fcff3a00fa003700889fbe008a9fbe0048
:10e6a0008c1f7800e1000700e800330003866c004f
:10e6b0006450e1002e0032006420e100330032009b
:10e6c0006150e1002f0032006120e1003100320092
:10e6d00085855500eb07b0000900200008042000e4
:10e6e000050037000804440089844c000a0031000a
:10e6f0000603430087834b000001530081815b00c8
:10e70000f8ff33000203be000800a0000804440024
:10e7100089844c00f6ff3900c639dd00830173009f
:10e7200001003200130020008904d1000884d300c6
:10e730000998a300050032000800a7000300a0000c
:10e740008904d1000884d3008b05e8008904d10036
:10e750000884d3000001eb000281d2008d00070085
:10e7600001f0a1000cf0a70001f0a000c0003700ec
:10e770006420e100c20032000801be000200be00b9
:10e78000f7ff37006120e100bd0032006000b800f3
:10e79000f3ff37000000200001f82700f0ff3700ea
:10e7a0000001be00b90007000470a70003f0a1003b
:10e7b00003f8a30013003a006509b100100032000d
:10e7c000090035006928e100020035000100280039
:10e7d0000000050000004000818048008502e9003b
:10e7e000fcff3a0000000600f88f420005003500eb
:10e7f0008100d1000080d3008502e800fcff3a00d0
:10e80000000006008000eb000000050003f0a200fd
:10e81000889fbe008a9fbe008c1f7800830007007f
:10e820008a0033006450e1004f0032006420e100b0
:10e830005200320003826c0007003b000905d00043
:10e840000306d000820f54000c065d000200390060
:10e8500002003200890178000306780085825500a5
:10e8600004003d000003fd008103fd008502ea0075
:10e870008b854200840f720002003b006000100094
:10e88000e08018006011b8000005eb007a28e10074
:10e890000a00390006007800c75ddd00f707b20006
:10e8a000878075002d003700828171000a01780091
:10e8b000610560008180d1000080d3008502e900fd
:10e8c000f9ff3b00060440008784480002003b003b
:10e8d00060041400e0841c000988a30007003200d3
:10e8e0008a81710082817100610164008904d10014
:10e8f0000884d3008b05e800170037000978a300cf
:10e9000013003a000b00e000130034008b05e9000f
:10e910000804440089844c000a4474000978a30068
:10e920000d003a000b00e000070034008b05e90001
:10e930000804440089844c0001003a000b002000c8
:10e940000978a300f7ff32000001eb000200370056
:10e95000828171000a0178000e0007000cf0a70008
:10e9600001f0a000420037006420e10002003a00fc
:10e97000838f6c00420033000801be000200be001d
:10e980003b003700f4ff2f00550037001400200033
:10e990005300370081002000618055000b003d00ce
:10e9a0000b00200061fe2f000100e1001d0034007b
:10e9b00082817100610164008904d1000884d30060
:10e9c0000000e800faff3a007100200061006400d6
:10e9d000030070000200600009003200610444007e
:10e9e000e0844c000988a500050032008b05e80092
:10e9f0006808e10002003a008904d1000884d300cd
:10ea0000f20f20000258e10005003d00c75ddd0067
:10ea1000f907b20089807500080078000000060040
:10ea20000bf827008b007800000005000004be00f2
:10ea3000160007000003be000405be000200be0071
:10ea400012000700844f7500000006000200be009f
:10ea50006450e100050036006420e1000200360049
:10ea60000968a30001003a000800be000160a00090
:10ea70004f0678004f05be004f04be0000000600a0
:10ea8000f0ff2f00f1ff2700f9ff3700c70ade0073
:10ea9000f107b200f50fb20008003200e1cf4200ea
:10eaa000020032000170a00024000500810f7000f8
:10eab000010032000408050044000500810f7000c9
:10eac00002003a00140005008502e9000000400041
:10ead00081c04800fcff3b000170a000240005003d
:10eae000889fbe008a9fbe00841f7800cfff07006a
:10eaf0004f00780011003300f0ff2f00838f6c006f
:10eb000006003b00040565000a00a7000800370066
:10eb100009f0a6001000200008003700820f540002
:10eb2000838f5c00030039001000200001003e00cc
:10eb30000000200009f0a7000000ea004f05be0019
:10eb40004f04be000000e000000006000000fe00d0
:10eb5000889fbe008a9fbe008c1f7800804278008c
:10eb60000203be0001067800307b8000e10f5000f8
:10eb70000c003a006ac05200e14f50000900360014
:10eb8000e6cf520007003200e8cf52000500320005
:10eb90000540780046320200010000000080fb00c2
:10eba0000e013700f47b8000487b8000597b800099
:10ebb0003bc0b30022c0b300e40f52000b00320090
:10ebc000e60f5200070032008245780012c0b30001
:10ebd000e20f520005003a008445780004417800b5
:10ebe000020037004bc0b3000b4178000580fb00ea
:10ebf0000100200061005000e0805800ff0f50002d
:10ec0000e08f580025003e0000600100260037001c
:10ec10003a0037004b0037005c0037002c0037000b
:10ec2000690037006f003700750037001b003700a0
:10ec3000650037006400370078003700890037002e
:10ec400012003700a70037009f0037009e003700f2
:10ec50001200370011003700180037000f0037008e
:10ec60000e0037000d0037000c0037000b00370096
:10ec70000a00370009003700080037000700370096
:10ec80000600370089003700000037006044b800f4
:10ec90000045eb008a407800ad0037001ac0b30091
:10eca0008040eb00aa003700e0ed200060409000bb
:10ecb0000008a30096003a009e003700e0ed200017
:10ecc000704090000028a30091003a00990037009e
:10ecd000e0ed2000604090004400de00610560002f
:10ece0000a04a20060788000717880000804400067
:10ecf0008984480011c0b30095003700e0ed200082
:10ed0000604090000000d100610560000a04a2008c
:10ed10001bc0b3000400e000040032002bc0b300ad
:10ed2000e40f520001003a000b417800c0778000e8
:10ed3000d1778000080440008984480011c0b300e6
:10ed400083003700e1ed2000614090004200de00ca
:10ed5000610560000a04a200e40f520005003a00b9
:10ed600061d092000028a30002003a002bc0b3003b
:10ed70000b417800f07780000178800008044000a3
:10ed80008984480011c0b30071003700e0ed200015
:10ed9000604090004300de00610560000a04a200ac
:10eda0003078800041788000080440008984480061
:10edb00011c0b300e40f520065003a002bc0b3004d
:10edc0000b417800620037001079800021798000c3
:10edd00008044000898448000045eb008a40780020
:10ede0005b003700d0788000e178800008044000a4
:10edf000898448000045eb008a40780054003700c1
:10ee000090788000a1788000080440008984480040
:10ee10000045eb008a4078004d0037007079800093
:10ee2000817980000804400089844800e40f520082
:10ee300003003a002bc0b3000b41780002003700fa
:10ee4000e20f5200020032000400e00002003a002b
:10ee50001bc0b3000b417800e60f52003a003a00a5
:10ee600030003700b0798000c1798000080440008c
:10ee700089844800e40f520003003a002bc0b3001d
:10ee80000b41780002003700e20f5200020032000e
:10ee90000400e00002003a001bc0b3000b41780000
:10eea000e60f520028003a001e003700207a80004a
:10eeb000317a800008044000898448000045eb0056
:10eec00011c0b30022003700507a8000617a8000c0
:10eed00008044000898448000045eb0011c0b300dd
:10eee0001b003700e0ed2000704090000000d100d2
:10eef000610560000a04a200e0798000f1798000d9
:10ef0000080440008984480011c0b3001000370095
:10ef100008002000090028000045eb0011c0b300e4
:10ef20000b0037000045eb008a4078006033b800e2
:10ef30000700370008002000090028001ac0b300ad
:10ef40008a407800020037000045eb0011c0b30092
:10ef5000307b80000000e00004003a00e7cf520060
:10ef600002003200e8cf520005003a006ac05200a9
:10ef7000e14f500002003600e6cf520008003a0090
:10ef8000e87a8000f97a80000104e0000400320091
:10ef9000d09f8000e19f80000003530081835b00cd
:10efa0000281fb00030020000600be0068f20200a0
:10efb000000000000b81fb00030020000202b800eb
:10efc0000191b90085024100041e440005964c00e1
:10efd0000a80fb000000e9004f00de004f067800c9
:10efe0004f05be004f04be0000000600889fbe0013
:10eff0008a9fbe00804078000205be000404be0067
:10f00000e47a8000f57a8000307b80000000e00028
:10f0100004003a00e7cf500002003200e8cf500071
:10f0200005003a006ac05000e14f5000020036006f
:10f03000e6cf50002c003a000180fb0001002000c8
:10f0400061005000e0805800ff0f5000e08f580032
:10f0500023003e00006001002c003700470037000d
:10f060004f003700570037003b0037005f00370084
:10f070006300370067003700190037005b00370076
:10f080005a003700680037006d0037001200370063
:10f090007a00370074003700730037001000370023
:10f0a0000f003700220037000d0037000c0037003a
:10f0b0000b0037000a00370009003700080037004e
:10f0c000070037000600370005003700040037004e
:10f0d00060003700000037000043eb00700037008d
:10f0e00016c0b3006e003700407b8000517b80006b
:10f0f00010002000f17f2000810f5400e08f5c00a1
:10f10000780036000000eb0076003700e0ed2000cc
:10f1100060409000614360000604a20050778000c8
:10f120006177800030778000417780005c00370095
:10f13000e0ed2000704090004200de0061036000be
:10f140000604a20090778000a1778000707780008d
:10f150008177800052003700e0ed20006040900091
:10f160004400de00610360000604a20060788000b5
:10f17000717880005078800049003700e0ed200071
:10f18000604090000000d100610360000604a2000e
:10f19000c0778000d1778000b077800040003700d2
:10f1a000e1ed2000614090004200de00610360005c
:10f1b0000604a200f2778000037880006158900076
:10f1c00037003700e0ed2000604090004300de0093
:10f1d000610360000604a20030788000417880005e
:10f1e00010788000217880002d0037001079800091
:10f1f00021798000307980000043eb00280037003f
:10f20000d0788000e1788000007980000043eb0036
:10f210002300370090788000a1788000c0788000bb
:10f220000043eb001e003700707980008179800078
:10f2300090798000a17980000043eb00180037002e
:10f24000b0798000c1798000d07980000043eb0064
:10f2500013003700207a8000317a8000407a8000e5
:10f260000043eb000e003700507a8000617a800086
:10f27000707a80000043eb0009003700e0ed2000c9
:10f28000704090000000d100610360000604a200fd
:10f29000e0798000f1798000007a8000117a8000a6
:10f2a000008020000100200004014000858148000a
:10f2b0000604e00009003a008a0f52008b8f5a00c2
:10f2c00006003e000a0044008b804c0014c0b300ce
:10f2d000820f5000838f5800010036000042eb007f
:10f2e0000480fb004f05be004f04be000000060076
:10f2f0000800fa00889fbe008a9fbe008c1f78001d
:10f30000804478000405be0001067800ef4f5000ed
:10f3100001003a0000000000f28057000940780028
:10f320000bfe070000447800e14f50003d003a001a
:10f330001c00be00e00f5000e08f58000a003a00a9
:10f34000ee8057000a01be000940780000fe070069
:10f350001fb89700afb897007fb197008fb997009b
:10f36000021e5000039658001c02be007fb1970099
:10f370008fb99700094078001cff0700004478000f
:10f38000e14f500027003a00307b8000e10f500031
:10f3900004003200e7cf540002003200e8cf5400ee
:10f3a0001b003a006ac05400e14f500018003600bc
:10f3b000e6cf5400160032001c00be00f37f200090
:10f3c000830f5000e08f58000200360000802000bc
:10f3d00001002000e27a8000f37a80000002be0083
:10f3e0007fb097008fb89700702d020001000000d9
:10f3f00000447800e07a8000f17a8000f0b79f0046
:10f4000081bf9f000804e00002003a0005003700b9
:10f4100018c0b3007fb097008fb897005407020060
:10f42000010000000880fb004f0678004f05be0079
:10f430004f04be000080fa00000006000000060035
:10f44000889fbe00e9ed20000004eb00087b8800e7
:10f450000801780021042000100020008a0a020020
:10f4600001000000080178001104200010002000b5
:10f470008a0a02000100000010c0b300d0f4980016
:10f48000c0f498004f04be0000000600e0ed20002c
:10f4900040f0900011c0b3000004e00006003a0004
:10f4a0000001eb0021042000020078008a0a02001b
:10f4b000010000008040eb000180fb00000006001e
:10f4c0000200fa00889fbe008a1f7800c87a800078
:10f4d000d97a800042c0bf004500de0067006000ae
:10f4e000c0bf9f0092028000ff3ffc0042c0bf00ef
:10f4f0007f40600001ccb3000140700042e0b700e3
:10f50000920288000005eb00b0b480000a08780081
:10f51000e07a8000f17a80005407020001000000c8
:10f5200061035400e0835c00e10f4300e08f4b0077
:10f53000170032000602be000005eb000604ea00d8
:10f540008084eb008701ea00c29f800012007800ef
:10f55000b0407800000978008180fb00010545007b
:10f5600061025200e0825a000930b80001014400f3
:10f57000830041000000430081804b006100500087
:10f58000e0805800800f5200818f5a00eeff3a0051
:10f5900031002000b0b480000108780092028000a1
:10f5a000ff3ffc00cfb89700c508dd0042c0bf0098
:10f5b0007f4060000140700042e0b7009202880086
:10f5c0000a0078004f0578004f04be000080fa0062
:10f5d00000000600e27a8000f37a8000c47a80009e
:10f5e000d57a80000003eb000200500083805800b1
:10f5f000840f5000858f5800010031001600200054
:10f6000006007800000006000600fa00889fbe0091
:10f610000002be0042c0bf000080fb004500de00cb
:10f62000d0bf9f0092028000ff3ffc0042c0bf009d
:10f630007f40600001ccb3000140700042e0b700a1
:10f64000920288008000eb00b0b4800001087800ce
:10f65000e00f5200e08f5a0002003a0001037800e8
:10f660001f0037000003eb00e88357001200200062
:10f67000030020000044eb00c19f800011007800cf
:10f68000b0447800e9f79f00800878006ff0970099
:10f6900090ff9f00820f5200838f5a0004003a00af
:10f6a000884b780024002000050020000700370068
:10f6b000c19f800011007800b0447800e9f79f00f6
:10f6c000800878006ff09700804b78004fb8970063
:10f6d0000003430062025200e0825a00e6ff3a0053
:10f6e00031002000b0b48000010878009202800050
:10f6f000ff3ffc00dfb89700c508dd0042c0bf0037
:10f700007f4060000140700042e0b7009202880034
:10f71000060078004f04be000080fa0000000600da
:10f720000200fa000001eb000100e00002003a00d4
:10f73000010178000a00370090417800f3ff9f0034
:10f7400090419000e3ff9f000080e8008180e90085
:10f75000ffb99700030141000100e000f6ff3a0005
:10f76000020078000080fa0000000600a07a800005
:10f77000b17a80000041eb00e00f5000e08f5800ac
:10f780000b00320000002400cf80de00e07a880009
:10f79000f17a8800e07a8000f17a8000107b88009e
:10f7a000217b880020f62000c09f880012c0b30093
:10f7b0000280fb0000000600e1ed20000040eb00ad
:10f7c00080d89a0090d89a00a0d89a00b0d89a0011
:10f7d00000000600d09f8800e19f8800000006001e
:10f7e000407c8000517c8000e00f5000e08f58008a
:10f7f0001b003a00807c8000917c8000e00f50006c
:10f80000e08f580016003a00c07c8000d17c800058
:10f81000e00f5000e08f580011003a00007d80009a
:10f82000117d8000e00f5000e08f58000c003a007e
:10f83000407d8000517d8000e00f5000e08f580037
:10f8400007003a00807d8000917d8000e00f50002d
:10f85000e08f580002003a00c07d8000d17d80001a
:10f86000dcff070000000600889fbe0091028000b8
:10f87000ff3ffc00f0c1b3004260b6009102880077
:10f8800080692100b0b488006c1c020001000000f7
:10f8900020302300103a88000004eb00283a88004a
:10f8a0008d0007000004e00001003a0018c0b3001a
:10f8b000884478000904a2006c0a020001000000dc
:10f8c0000001eb0011002000020078008a0a02000b
:10f8d000010000000804e000050032000001eb0018
:10f8e000a1002000020078008a0a02000100000046
:10f8f000d9000700406921001010a000ad000700ea
:10f90000b81902000100000070002000aa0c0200db
:10f91000010000000004e000050032000081290021
:10f9200021002000760902000100000004003700d9
:10f93000609d220001002000760902000100000005
:10f94000c80007000004e00001003a00804478008d
:10f950000040eb00ea0d02000100000011c6b300f8
:10f9600010c0b30022080200010000005c2d02005c
:10f9700001000000b4090200010000000004e000e2
:10f9800005003a000001eb0061052000020078004c
:10f990008a0a020001000000ce09020001000000f6
:10f9a00034090200010000000000eb0082080200a0
:10f9b00001000000221d0200010000000044780048
:10f9c0000004e00006003a000001eb0031002000d6
:10f9d000020078008a0a02000100000088447800d2
:10f9e000941d0200010000000004e00005003a0040
:10f9f0000001eb0041002000020078008a0a0200aa
:10fa000001000000d2150200010000000004e00027
:10fa100001003a0080447800a807020001000000bd
:10fa20004e1a02000100000010c0b3004a1a020082
:10fa3000010000000001eb009104200002007800aa
:10fa40008a0a0200010000000001eb0021042000ee
:10fa5000020078008a0a0200010000000904e000a8
:10fa600003003200cd42a900cd62a9000500370095
:10fa70000001eb0011002000010078008a0a02005a
:10fa8000010000000980fb004f04be0000000600da
:10fa90004c0e0200010000000004e00008003200eb
:10faa00010002000280c02000100000020002000af
:10fab000280c020001000000cd22a9000000060071
:10fac0000001eb0011002000010078008a0a02000a
:10fad00001000000f8ff3700f407020001000000f9
:10fae00020ff2f0060198800c922a900c962a9005f
:10faf000c942a900cd22a800cd42a800cd62a8002d
:10fb0000e862a900e042a900ec62a900e442a90071
:10fb1000e862a800e402a800d842a900e002a90017
:10fb2000e422a800e022a900cc22a900dcc2a9009e
:10fb3000c822a900d8c2a900d862a800d882a9000a
:10fb4000d842a800dc82a900da42a900e4a2a900f8
:10fb5000cca2a900cc82a900e0a2a900e0c2a90021
:10fb6000c8a2a900c882a900e4e2a800e462a90032
:10fb7000e662a800e0e2a900e062a900c862a8006d
:10fb8000c842a800f0c2a800c9a2a800f102a800bb
:10fb9000f0e2a800d8c2a900c822a900d942a90051
:10fba000d922a900c9c2a900d822a90010002000aa
:10fbb00000000600889fbe008a1f780048eb2000e6
:10fbc0006000b800008cbe0082eb20000089be00ff
:10fbd000c2eb20000089be0002ec20000089be00bc
:10fbe00042ec20000089be000005eb004a76880048
:10fbf000a9ec2000420120008a007800090078006a
:10fc00002cf202000000000093c9b300034c7800fe
:10fc100012c0b3001244980081c0b3002144980080
:10fc200000c2b30030449800434498005244980006
:10fc300061449800704498008a4c78009a44980077
:10fc400020c0b300a0449800ba4498004f05780043
:10fc50004f04be00000006000000eb00a0b48800c6
:10fc60000000060040eb200080c0eb001148980027
:10fc70003148980021489800014898002000200051
:10fc8000007688001000200000000600e20f5000ff
:10fc900002003a00406921001000a00000000600a8
:10fca0000200fa00881f78001400200005002000e0
:10fcb000648157001008200001002000702d020010
:10fcc000010000004ff89700e14f400002003a00a9
:10fcd0000040eb00c0ff9f004ff89700e34f50003b
:10fce00004003a000040eb00c0ff9f000044780091
:10fcf000030037000040e800c0ff9f0018c0b300b9
:10fd00001400200005002000648157001008200026
:10fd1000010020005c2e0200010000000880fb00b2
:10fd20004f0478000080fa00000006000200fa008c
:10fd30000040eb00e0ff9f001400200005002000c1
:10fd40000f81e90010082000010020005c2e020055
:10fd5000010000000080fa0000000600881f780003
:10fd60000040eb00712521008048780061252100ca
:10fd700080487800006c2c00d10220007609020037
:10fd80000100000034fc02000000000062090200d3
:10fd90000100000010002000aa0c02000100000079
:10fda0000044eb000004e00005003a0001c2b3008b
:10fdb0000040eb00220802000100000018c0b30060
:10fdc000030007000804e000fdff3a00f1ff3700e0
:10fdd0000400fa00cc0037000040eb004c090200a0
:10fde00001000000e03f21001004e00005003a009f
:10fdf0000001eb0081002000020078008a0a020066
:10fe00000100000022002000030020006480570051
:10fe1000d61c0200010000000001eb009100200050
:10fe2000100020008a0a020001000000efb89700cd
:10fe300050022000808f50001400320079004000f2
:10fe4000808f50001100320075005000808f5000ec
:10fe50000e00320050062000808f50000b00320050
:10fe6000d0022000808f500008003200f78f500031
:10fe7000060032008040eb0022002000030020003a
:10fe800064805700e01d0200010000006fb8970079
:10fe9000010020000002b1000180b10072022000c8
:10fea000820f5000e08f580081003e00006001008a
:10feb000290037007e003700250037007c0037001e
:10fec0007b003700480037005000370078003700cb
:10fed000770037004a00370075003700740037009c
:10fee000730037004300370071003700700037009f
:10fef0006f0037006e0037006d0037006c00370070
:10ff00006b0037006a00370069003700680037006f
:10ff1000670037006600370065003700640037006f
:10ff2000630037006200370061003700400037008f
:10ff30005f0037004a0037005d0037005c00370083
:10ff40001f0037005a0037005900370056003700ad
:10ff5000d50007005e003700648057006100200074
:10ff6000012878008040eb002200200003002000e0
:10ff7000e01d020001000000cc150200010000009d
:10ff800040818800c61502000100000060818800e1
:10ff900060818000508188008040eb0010c0b30079
:10ffa000740007008040eb00620020000300200086
:10ffb00080022100e01d0200010000004400370023
:10ffc0008040eb0010c0b3006a0007008040eb00e7
:10ffd0004201200003002000a0ec2000e01d0200f0
:10ffe000010000003a003700321e0200010000004c
:10fff0003700370011c0b300f03f210001487800fe
:020000040002f8
:10000000321e0200010000003100370010c0b300b2
:10001000801e02000100000048fd020000000000f8
:100020008040eb0010c0b3005200070028003700ea
:100030008040eb0010c0b3004e0007008040eb0092
:10004000020220000300200000602100e01d0200e9
:10005000010000001e0e0200010000001c0037001d
:100060006480570061012000012878008040eb0087
:100070002200200003002000e01d0200010000001b
:100080008040eb0010c0b3003a0007008040eb0056
:10009000620120000300200040eb2000e01d020070
:1000a000010000000a003700960207000800370030
:1000b0000001eb0091002000020078008a0a020093
:1000c000010000008040eb0001407800290007009b
:1000d000c01e0200010000000001eb00e2bf9f0013
:1000e000e03f21001004e00004003a0081002000fd
:1000f000100020008a0a02000100000010c0b300b6
:100100004c09020001000000cc1c020001000000ac
:100110000004e00030ff3a000080fa000000060012
:100120000001eb00e1032000100020008a0a020019
:10013000010000000001eb00f1032000100020008e
:100140008a0a0200010000000001eb000104200007
:10015000100020008a0a020001000000dcfb0200ff
:100160000000000060042000aa0c02000100000052
:10017000000006000200fa00881f780000447800a2
:100180000104e00002003200c01e02000100000075
:100190000804e000030032000000eb00e0bf9f0015
:1001a00002003700f00f2000e0bf9f008040eb000e
:1001b000220020000300200064805700e01d0200a0
:1001c000010000004f0478000080fa0000000600e3
:1001d0000400fa00881f7800004478000040eb001b
:1001e000c0ff9f000104e00002003200c01e0200b8
:1001f000010000000804e000030032000000eb00f2
:10020000d0bf9f0002003700f00f2000d0bf9f003a
:100210008040eb0022002000030020006680570091
:10022000e01d02000100000048c3b3008040eb0065
:10023000120020000300200064805700e01d02002f
:10024000010000000844e900f8ff3a004f0478007c
:100250000080fa00000006000200fa00889fbe003d
:1002600080047800a1ff9f000000e0000b00320036
:100270000044eb008040eb0012002000030020004f
:1002800066805700e01d0200010000000844e800fd
:100290000880fb00808f5400f6ff3e004f04be0034
:1002a0000080fa00000006000800fa00881f7800ad
:1002b00042002000030020006a805700d61c020084
:1002c000010000004200200003002000668057006b
:1002d000d61c0200010000005fb99700efb997003b
:1002e0003fb89700cfb89700380007000044780067
:1002f0000004e000040032005fb897000008a3008b
:10030000010032000044eb008040eb000840780020
:1003100098ff0700c01e0200010000000040eb0033
:100320004a1a020001000000481a02000100000001
:100330000804e0001d0032005fb99700efb9970094
:100340003fb89700cfb897001013020001000000db
:10035000004478008040eb0086ff0700c01e0200ca
:10036000010000000804e00015003200cd42a900a1
:10037000cd62a8002c070200010000000004e0008c
:1003800002003200220702000100000000242400c5
:10039000f10020007609020001000000f4070200cd
:1003a000010000000000fe00050037008040eb0067
:1003b000014078006fff0700c01e0200010000002e
:1003c0004f0478000080fa0000000600889fbe00fd
:1003d0000004be000200be00320020000300200026
:1003e00068f2020000000000000040008180480028
:1003f00002802000820f5400e08f5c0007003a006a
:100400000000440081804c0012002000e3ff2e0019
:10041000830f5000e08f5800010036000001eb0010
:10042000020078004f04be00000006001000fa0031
:10043000881f780022002000030020006c805700f5
:10044000d61c020001000000420020000300200032
:100450006a805700d61c0200010000004200200004
:100460000300200066805700d61c02000100000037
:100470003fb89700cfb89700eafb020000000000e9
:100480002fba970000022000800f52000a003a00a5
:1004900000002400cf80de00e07a8800f17a880036
:1004a000e07a8000f17a8000107b8800217b880050
:1004b00020f62000c09f8800f28057003fb99700c7
:1004c000cfb9970004407800a8f5020000000000b2
:1004d00000447800e14f50003a003a005fba9700bc
:1004e000efba97007fb197008fb997004ff0970050
:1004f000f6f702000000000000447800e14f5000d1
:100500002b003a007fb097008fb897005407020085
:10051000010000007fb297008fba9700e681570074
:100520006a815700cff0970020c0b3000601070092
:10053000004478007fb097008fb8970054070200fe
:10054000010000005fb89700efb8970004fb0200bd
:100550000000000090bf9f008040eb000840780042
:1005600004ff07000804e000140032007fb0970089
:100570008fb8970054070200010000008040eb0094
:100580005fb99700efb997000000eb00e01d020093
:10059000010000008040eb0022002000030020004a
:1005a0006e805700e01d02000100000003003700cc
:1005b0008040eb0001407800eefe0700c01e020004
:1005c000010000000880fb004f0478000080fa0062
:1005d000000006001000fa00889fbe008a9fbe003f
:1005e0008c9fbe0022002000030020007680570070
:1005f000d61c020001000000420020000300200081
:1006000074805700d61c0200010000004200200048
:100610000300200070805700d61c0200010000007b
:100620006fb09700ffb09700eafb020000000000e7
:10063000397b8000307b8000e10f500002003a00df
:1006400020002000307b8800fc8057006fb19700ad
:10065000ffb197002fe89700a8f502000000000006
:1006600000447800e14f5000ac003a00397b88002c
:100670008040eb00bffe0700c01e0200010000002a
:10068000dfb0970067805000e10f50000e003e0081
:10069000e78f500009003a00d07b8000e17b8000aa
:1006a000e00f5000e08f580004003a006fb0970050
:1006b000ffb09700d07b8800e17b88006000b80025
:1006c000e0b79f00f1b79f002fb09700bfb0970031
:1006d0005407020001000000307b8000e10f500051
:1006e000050032005fb09700e70f500002003200b3
:1006f000e80f50004a003a00e07a8000f17a80006a
:1007000054070200010000005fb29700ef0f520093
:1007100001003a0000000000387b8000200020002b
:10072000307b8800fc8057006fb19700ffb19700c5
:1007300004407800a8f5020000000000387b880023
:100740002fb19700bfb197002fe897000234020045
:10075000010000002fb59700bfb597000fbe9700ae
:100760009fbe97001e00370000602000010020009f
:10077000800f5400818f5c00010036000004be0031
:10078000e07a8000f17a8000540702000100000046
:100790000801be000000eb00d61c020001000000b2
:1007a000e27a8000f37a80000802be000a00be00f0
:1007b0005c2e0200010000000a0544008b854c00fd
:1007c0000fb997009fb9970008015100898159001e
:1007d00082bf9f0093bf9f000004e0000e00320024
:1007e0000fbc97009fbc9700e00f5400e08f5c00a7
:1007f000ddff3a008cbf9f009dbf9f002fb1970087
:10080000bfb197000c00be0084330200010000005d
:1008100000047800100037000004eb000e003700e1
:100820000fb997009fb997000000eb00d61c02009b
:10083000010000002fb09700bfb0970054070200de
:10084000010000000fb897009fb8970004fb02005a
:1008500000000000000478002200200003002000b7
:1008600078805700d61c0200010000004fb09700ae
:10087000000044000044eb0028003a00dfb097007d
:10088000ee8f50000b00320000022000808f5000dd
:10089000080032002fb09700bfb09700eafa0200bc
:1008a000000000000004e0000200320020fa020014
:1008b000000000005fb39700e70f530007003a0005
:1008c000e1ed20000fb89700f078880071409000ab
:1008d0000000a000f040980008003700e80f530027
:1008e00006003a00e1ed20000fb89700b0788800cc
:1008f000614090000070a000e04098002fb2970087
:10090000bfb29700f081570074815700864078008d
:1009100010c0b3000c000700004478008040eb00da
:100920000840780013fe0700c01e0200010000000e
:100930000880fb004f06be004f05be004f04be00fe
:100940000080fa00000006001300be00e00f500017
:10095000e08f580001003a00000000001000200065
:10096000000006000200fa00889fbe008a1f78007f
:100970000005780081047800220020000300200098
:1009800068805700d61c0200010000004fbc970091
:10099000890f540004003200020039000904780075
:1009a000010037004fbc97006141b8000a00780091
:1009b000d61c0200010000004fb89700800f5400c1
:1009c0000800310088045000060032000004eb00eb
:1009d000ea1c0200010000000804e800888f5400af
:1009e000fbff3a004f0578004f04be000080fa007c
:1009f000000006002200fa00889fbe008a9fbe0009
:100a000000047800814578008344780002022000c9
:100a10008000eb0073fd2f000f8041002cf20200dc
:100a2000000000000800e000040032000007200081
:100a3000800f540012003a0009003700e400200043
:100a40000500200070fd2f000f0140004000200035
:100a500001002000702d0200010000000800370096
:100a6000440020000500200073fd2f000f8141008d
:100a70002001200001002000702d02000100000074
:100a80008040eb0010c0b300bafd07000004eb008b
:100a900070fd2f000f0540006a407c00e0d79f00ea
:100aa000e14f400003003a000904e00001003a0071
:100ab000e9d79f008040eb001200200003002000d7
:100ac00060fd2f000f004000e01d0200010000004b
:100ad000efd197000304e00002003a000904e000af
:100ae000030032000804e80088cf5500eaff3e000a
:100af000100020004f05be004f04be000080fa0029
:100b0000000006000400fa0000022000e0bf9f0081
:100b10008040eb002200200003002000648057008a
:100b2000e01d0200010000008040eb0010c0b30097
:100b300090fd07000000eb00e0bf9f006fb897003a
:100b400041672100e0c07800e1ff9f000000e8005d
:100b5000e0bf9f00e1cf400002003a000040eb0000
:100b6000e0ff9f008040eb00120020000300200007
:100b70000f80e900e01d0200010000006ff89700ff
:100b80000004e000030032006fb89700ff0f500030
:100b9000eaff36000080fa00000006000400fa00b8
:100ba000881f780041002000668057006dff070015
:100bb0004200200021252100668057003af2020001
:100bc0000000000018c0b3000000e0000600320082
:100bd0005fb89700efb8970090928800a1928800c4
:100be000080007000044780010c0b300801e020017
:100bf000010000000880fb004f0478000080fa002c
:100c000000000600889fbe008a1f7800e0ed2000eb
:100c1000e0f892000100a10061f89a00e0f892006b
:100c20000110a10061f89a00c4190200010000003f
:100c30000045780010c0b3004c090200010000001c
:100c4000f8ff2f00790020000a04e00002003a00bb
:100c50002200370000000000c0032000aa0c0200a0
:100c6000010000000004e00003003a0061045400a9
:100c7000e0845c00f7ff3a000040eb004c09020002
:100c800001000000e00f5400e08f5c00160032000d
:100c9000e8ed200068f892000000a00060fc9a00d7
:100ca00068f892000010a00060fc9a00200020006c
:100cb000fe180200010000005a19020001000000a5
:100cc00068f892000000a10060fc9a0068f89200a9
:100cd0000010a10060fc9a00030037000040eb0008
:100ce0004c090200010000000a80fb004f0578005b
:100cf0004f04be00000006008040eb0010c0b300af
:100d00001cfd0700000006000400fa00881f7800a0
:100d100000027800010378000304780000002f002f
:100d2000f107200002004000e0804800d0bf9f0093
:100d3000e1bf9f000400e0003900320019003700d5
:100d40004ff897000080fb00900188009440ba00a3
:100d50000380fb00017478005fb89700efb897003c
:100d600061004000e0804800d0bf9f00e1bf9f00cd
:100d70008703e9000201e800820f53001f003200e0
:100d8000824178005fba9700efba9700f0ff2f001a
:100d9000f1072000800f5200818f5a00e8ff3600d3
:100da00016003700e10f520022003a00170037000a
:100db0004ff897000080fb0090018800610141001e
:100dc000e0814900d2bf9f00e3bf9f008502e90098
:100dd0000402e800840f53000a0032005fb9970054
:100de000efb99700f0ff2f00f1072000800f5100ae
:100df000818f5900eeff36000200370007037800ac
:100e00000c003700050378000a0037000600e000f8
:100e100008003200860278000002eb00efff370086
:100e20000600e00003003200860378000001eb00ba
:100e3000d3ff37000680fb004f0478000080fa00e3
:100e40000000060000002a00210020004a100200d5
:100e500001000000000006000080200001002000ca
:100e6000070007000041eb0001a52100810f5000a1
:100e700001003a0012c0b3000280fb00000006002f
:100e80000400fa00e0bf9f00f1bf9f006ff89700d9
:100e90000080fb00900188006fb897001000ba0036
:100ea0000080fa0000000600107b8800217b88008b
:100eb00000000600107b8000217b800000000600ff
:100ec00000000600000006006000b80000000600f8
:100ed00080027800127b8000237b80000100e90003
:100ee000e10f400006003200050278000080420059
:100ef0000000e80034597800800f5200fdff3a00ee
:100f00006110b800107b8800217b8800000006007b
:100f100080027800127b8000237b80000100e900c2
:100f2000e10f400006003200050278000080420018
:100f30000000e800325a7800800f5200fdff3a00ae
:100f40006110b800107b8800217b8800000006003b
:100f50000200fa0042c0bf004500de0067006000ea
:100f6000f0bf9f0092028000ff3ffc0042c0bf0024
:100f70007f40600001ccb3000140700042e0b70048
:100f8000920288000000eb00b1b480008008780075
:100f900032002000b1b48000820878009302800003
:100fa000ff3ffc007fb997004511dd0021042000c0
:100fb00091407800ffc0600082c070008000fd009a
:100fc00042e0b7008000fd00930288000001780035
:100fd000710020008a0a02000100000010002000b9
:100fe0000080fa000000060010002000000006004b
:100ff00000e02000000388006220ef008660a90066
:10100000adc0bf00f1c8b300014060000044a000c3
:10101000ade0b7006340a8009660a800000006009d
:101020000004e00003003200e4e2a800e462a9004a
:1010300002003700e4e2a800e462a8000000060015
:1010400000000600889fbe008a1f78008044780058
:1010500001447800c064210010457800a000200001
:10106000aa0c0200010000000004e0001e003a008b
:101070000808a3000e0032000904e0000600320058
:10108000e402a900d842a800e422a900e442a90091
:10109000e862a80005003700e402a800d842a900d1
:1010a000e422a800e442a800e862a9000804a10024
:1010b0000904e0000300320008c0ea008a40600032
:1010c000010037008a407400c064210001487800a4
:1010d0000168a30001003a00e4c2a900c089210010
:1010e00001002000810007004f0578004f04be007a
:1010f00000000600c064210010c0ea001006b20023
:1011000000000600889fbe0000047800c064210033
:10111000904478000040eb004a1a020001000000f1
:101120000800e00003003a00e4e2a800e462a8003e
:1011300002003700e4e2a800e462a900c0642100d4
:101140000974a000094878004c1a02000100000050
:1011500010c0b3004a1a0200010000004f04be0094
:101160000000060000032000900888008500a90008
:101170006e00400070088800a8c0bf0081cfb30097
:10118000014060005040b300a8e0b7009500a800ff
:1011900013e1a800000006000400fa00e0bf9f0071
:1011a000f1bf9f000000eb0000098800f0088800f4
:1011b0001e61a80073b2880094b2880082b28800d1
:1011c0006fba9700ffba970000242400f1002000b6
:1011d000800f5200818f5a000c003600420620001a
:1011e000030020000400be0068f2020000000000be
:1011f000026420000202b8000289b90085024100a1
:10120000e4bf9f00f5bf9f000a0037000264200082
:101210000220b80002a9b900810041004206200066
:101220000300200068f2020000000000e0bf9f0001
:10123000f1bf9f007fb89700e00888006fb8970063
:10124000d00888008780a900b2c0bf0081cfb3005a
:10125000014060000004a000b2e0b7009780a80041
:101260000080fa00000006000003200080088800cb
:1012700084e0a90010c0b30007000700a7c0bf00aa
:10128000f1c8b300014060000054a000a7e0b7001f
:1012900094e0a800000006000004e0000300320013
:1012a00050c320006008880002003700c0142500e9
:1012b0006008880000000600801320006008880095
:1012c0000000060011e1a800000006000000eb008d
:1012d000c0088800a00888008780a9001fe1a80036
:1012e000000006001fe1a90000000600889fbe0064
:1012f0000004be00e00f5000e08f580011003200e3
:10130000f8ff0700f20f5400e08f5c000200360087
:1013100072045400e0845c000002eb008401780059
:10132000040178000800be009bff07009780a90019
:10133000e6ff070087c0bf000048a300fdff3200a2
:101340008780a9004f04be00000006003a1f02007b
:101350000100000000122a0071002000e3ff0700d6
:101360000000fe0000000600881f7800486721008a
:10137000020220008000eb00080078002cf202003e
:1013800000000000c1c0b300080078003a00070068
:101390000080fb004f04780000000600881f7800e2
:1013a00068ec2000440020000500200008017800bf
:1013b0002001200001002000702d0200010000002b
:1013c00040eb200020509000e14f400008003a0020
:1013d0000040eb00004c780071ec20008048780061
:1013e00081ec20008048780091ec20008048780053
:1013f0004f047800000006000800fa00c0bf9f00fc
:10140000d1bf9f006480570002087800f3bf9f009f
:101410000ffb9700bffb97002ffa97001ff997006b
:1014200010407800fffa9700eff99700dff8970077
:10143000814f510006003e0009003a0084cf510060
:101440000300390006003a0085cf5300040039003c
:10145000804f5300040031000004e000020032001d
:101460000040eb000100370010c0b3000080fb001b
:101470000080fa0000000600881f78000004780051
:10148000e40020000500200000017800400020005a
:1014900001002000702d02000100000000417800d2
:1014a0001840e900e34f400002003e000204e00063
:1014b00006003a0061622b00406721000c00090021
:1014c00031587800d000b100d100b1000280fb009b
:1014d0004f04780000000600881f78000860210093
:1014e000020220008000eb00080078002cf20200cd
:1014f00000000000f0032000000c78001000200025
:1015000010b08800e002200040b288004f0478004c
:1015100000000600e6874700889fbe008a9fbe0045
:101520008c9fbe008e1f78008005780082bf9f00d0
:1015300070052000808f50000200360091032000cb
:101540008005eb007608b90042632b0000054100de
:101550002a0790004a0090001004be005a0690002e
:10156000ea069000120020000300200040602100e5
:10157000930007008040eb00e1ef9f000004e000d3
:1015800007003a0012002000030020004160210003
:101590000000eb007700070010c0b300e0ef9f00f1
:1015a0000b00e00005003a001a007800c2000700b6
:1015b0000c0274008d8274000c0037001a00900039
:1015c000bd0007000c80ea008d80ea000801600081
:1015d0000980600001002000c002dd00040020003e
:1015e0006110b80000027200818272004a0090000f
:1015f0000000e000010032000488be008a0890006c
:101600000100e000040032001a099000aa099000cd
:101610000b00780057000700efe897000104e00096
:10162000460032001200200003002000416021002b
:10163000100020004f000700400037006a40900073
:101640000004e00040003a00340037006044b80075
:10165000cd42a800cd62a90070002000bd000700a7
:101660000004e0000500320000092d0031002000d8
:1016700076090200010000000400370060d8230052
:10168000010020007609020001000000cd42a900ff
:10169000cd62a90070002000ae0007000004e00049
:1016a0000500320000092d003100200076090200fb
:1016b000010000000400370060d823000100200072
:1016c000760902000100000061044400e0844c003f
:1016d0006a4090000080fb0001002000800f540051
:1016e000818f5c00daff390070002000990007004c
:1016f0000004e0000500320000122a007100200002
:10170000760902000100000004003700c0b0270085
:10171000010020007609020001000000fa0090009c
:101720000100e000c5ff32000fb897000100010082
:101730000004e000c1ff320007003700e10f57004e
:1017400005003a00bdff37006a4090000004e00049
:10175000e5ff3200bdff3700100020004f07780082
:101760004f06be004f05be004f04be006f00b10023
:1017700000000600010378000202be000000e00045
:1017800003003a0091187100919071000b0037002e
:101790001101be000480ea008580ea0002026000b8
:1017a000038060006101b800c010dd00000020006f
:1017b0006121b800021b7000039370000000060056
:1017c0001000be008002eb00000261000180610099
:1017d0006101b800c010dd00000020006121b800e8
:1017e0000200700083807000e00f5000e08f58000e
:1017f00001003200150020000500780000000600fe
:10180000889fbe0000047800a9018000200020000d
:10181000a0018800180090004e0007006044980066
:10182000a90188004f04be0000000600881f780050
:10183000a801800021002000a1018800100078008c
:1018400003000700a80188004f047800000006008c
:10185000881f78000004780040b28000880f500094
:10186000130032001200200003002000416021001c
:101870000000eb00bfff07000001eb0088007800cc
:101880000200780023ff070041b280000001eb0056
:10189000100020001fff070048b28800120020003f
:1018a000030020004160210010002000b1ff07006c
:1018b0004f04780000000600e40f500018003200ca
:1018c00006003e00e20f50000f00320011003e0003
:1018d000e10f50001e003a0008003700e60f5000ec
:1018e0001200320014003900e70f500017003200d8
:1018f000e80f500016003a0012003700cd42a90050
:10190000cd62a80012003700cd42a800cd62a90028
:101910000f003700cd42a800cd62a8000c003700b0
:10192000cd42a900cd62a90009003700cd42a9002f
:10193000cd62a80006003700cd42a800cd62a90004
:1019400003003700cd22a90001003700cd22a800f6
:101950000000060044632b007600b9008000780088
:101960006800400060007a000000e00010003200d3
:101970001001be006a80400004004000900090000a
:1019800010026100838060006109b800c010dd00b2
:10199000000020006121b800020070008380700008
:1019a00012c0b300e00f5000e08f580001003a0071
:1019b0000041eb000280fb00000006008660210071
:1019c0008562210004c1b3000001eb008041eb00ff
:1019d000e54079006640790080cf50000100320078
:1019e00013c0b300834078000240e800804f5200eb
:1019f000030036000201e8000304e000f3ff3200b8
:101a00000180fb000000060001602100006221004f
:101a10001f000900315878000002b1000102b10036
:101a200000000600016421008048780000000600e4
:101a3000116421008048780000000600e30f500088
:101a40002f00320004003e00e10f50000d00320074
:101a500028003e0008003700e50f50002b00320040
:101a60000f003900e60f500014003200e70f50005d
:101a70002a003a0018003700206421001000a0005e
:101a8000260037000001eb0051042000020078001e
:101a9000a0fe0700206421001010a0001f003700e6
:101aa0000001eb00e10420000200780099fe07002d
:101ab000206421001010a000180037000001eb0086
:101ac000510420000200780092fe070020642100eb
:101ad0001040a000110037000001eb00e1042000dd
:101ae000020078008bfe0700206421001040a00057
:101af0000a003700206421001020a00007003700f2
:101b0000206421001030a000040037002064210070
:101b10001050a00021c0b300214098002164210092
:101b2000214090000004a000a040980000000600a2
:101b300070002000c1ff07000000060060002000c8
:101b4000beff0700000006005004200081ff0700d0
:101b50000004e000040032000001eb00510420000a
:101b6000100020006bfe0700e004200079ff070052
:101b70000004e000050032000001eb00e104200059
:101b80001000200063fe070010c0b3000080fb00bf
:101b90000000060020642100404190000204e000a3
:101ba0000100320012c0b300216421008008eb0064
:101bb000b11078000000eb0030b28800c2409800fd
:101bc0000000060020642100304090000080fb00ef
:101bd00000000600881f7800004478000001eb0038
:101be00051042000100020004afe0700e9ff070012
:101bf0000000eb0050b288000804e000040032004e
:101c000011c0b30020642100314098000300370068
:101c10008040eb0020642100314098004f047800a0
:101c20000000060020642100204090000080fb009e
:101c30000000060040642100000006000001eb00e7
:101c4000610420001000200032fe07000001eb00bc
:101c5000a1032000100020002efe07000001eb0071
:101c6000b1032000100020002afe07000001eb0055
:101c7000710420001000200026fe07000001eb0088
:101c8000810420001000200022fe07000000060052
:101c90000000eb000000060010002000000006001d
:101ca0008020a900ffff37008060a900ffff3700f8
:101cb0008040a900ffff37008080a900ffff3700a8
:101cc0008020a900ffff37008060a900ffff3700d8
:101cd0008040a900ffff37008080a900ffff370088
:101ce0003600f800809fbe00829fbe00849fbe0029
:101cf000869fbe00881f78000200fa0042c0bf0025
:101d00004500de0067006000f0bf9f009202800087
:101d1000ff3ffc0042c0bf007f40600001ccb30029
:101d20000140700042e0b70092028800b0b4800029
:101d30000008eb00a801800020002000a00188001e
:101d400084e0a9004a1c020001000000a8018800ec
:101d500031002000b0b480000108780092028000b9
:101d6000ff3ffc00ffb89700c508dd0042c0bf0080
:101d70007f4060000140700042e0b700920288009e
:101d80000080fa004f0478004f03be004f02be00ef
:101d90004f01be004f00be003600f90000400600b3
:101da0003600f800809fbe00829fbe00849fbe0068
:101db000869fbe00881f78000200fa0042c0bf0064
:101dc0004500de0067006000f0bf9f0092028000c7
:101dd000ff3ffc0042c0bf007f40600001ccb30069
:101de0000140700042e0b70092028800b0b4800069
:101df0000008eb00a801800020002000a00188005e
:101e00006e240200010000008ec0a9009ec0a80040
:101e1000a801880031002000b0b4800001087800db
:101e200092028000ff3ffc00ffb89700c508dd006c
:101e300042c0bf007f4060000140700042e0b70038
:101e4000920288000080fa004f0478004f03be0021
:101e50004f02be004f01be004f00be003600f90029
:101e6000004006003600f800809fbe00829fbe0042
:101e7000849fbe00869fbe008780a90080b280003c
:101e80000000e00001003a009780a90071b28000d4
:101e9000e18f50000200360090b280000100010086
:101ea0004f03be004f02be004f01be004f00be00f8
:101eb0003600f90000400600809fbe00821f7800b7
:101ec000a201800020002000a00188008660a900f7
:101ed00011c0b300203e210001487800a201880013
:101ee0004f0178004f00be0000400600809fbe00fa
:101ef000821f78000200fa0042c0bf004500de00e9
:101f000067006000f0bf9f0092028000ff3ffc006e
:101f100042c0bf007f40600001ccb30001407000b0
:101f200042e0b70092028800b0b480000008eb00e5
:101f3000a101800020002000a00188008aa0a90043
:101f4000a101880031002000b0b4800001087800b1
:101f500092028000ff3ffc00ffb89700c508dd003b
:101f600042c0bf007f4060000140700042e0b70007
:101f7000920288000080fa004f0178004f00be00f6
:101f8000004006000200fa000002780042c0bf00d4
:101f90004500de0067006000f0bf9f0091028000f6
:101fa000ff3ffc0000ceb3004260b7009102880002
:101fb000b2b4800092017800e38f51000b003a0028
:101fc000010e2000ffb9970001806100810f5000d1
:101fd00002003a000009eb00020037001000200068
:101fe00000097800b0b4800090017800b1b480009e
:101ff000910f12000d0032000400e00003003200d7
:10200000e10f520009003a00040037007000200080
:10201000f0bf9f008008eb00040037000000eb00d9
:10202000f0bf9f001000200080087800920280001e
:10203000ff3ffc00ffb89700c508dd0042c0bf00ad
:102040007f4060000140700042e0b70092028800cb
:10205000030078000080fa00000006001000240051
:10206000003b880050052000303b8800a00a20007b
:10207000303b880061e7a80000000000000000007d
:1020800001c8b30061c7bf0001406000fdff3a0016
:10209000000006000200fa0022042000124178002d
:1020a0004511de0067016100f2bf9f0094028000cd
:1020b000ff3ffc0022042000124178007f416100b4
:1020c00003ccb300034171000001fd0042e0b70002
:1020d0000001fd0094028800b2b480000009eb000a
:1020e0004009de0003002000940180009201880076
:1020f00022042400023b88000008bb005005200099
:10210000303b8800a00a2000303b880061e7a8002f
:10211000000000000000000001c8b30061c7bf005c
:1021200001406000fdff3a0094018800310020006a
:10213000b0b480000108780092028000ff3ffc00ec
:10214000ffb89700c508dd0042c0bf007f406000b7
:102150000140700042e0b700920288000080fa005f
:10216000000006001400fa00889fbe00c0bf9f0058
:10217000d1bf9f006000b80080bf9f0091bf9f004b
:10218000a0bf9f00b1bf9f0002037800096020003c
:102190008043eb0070845700860178002ff8970089
:1021a0000080fb00900188004fba9700dfba9700cb
:1021b0001400ba00cf80de00c0b79f00d1b79f00e7
:1021c00014c1ba00a2ef9f00b7ef9f000481e8009e
:1021d0001200ba00cf80de00e0b79f00f1b79f0089
:1021e00012c1ba00e2ef9f0064024200e0824a009e
:1021f000c4bf9f00d5bf9f00f7ef9f008800780005
:1022000007407800b35878000040e800e34f5000e2
:10221000fcff3a0037449800ec805700b358780030
:102220000040e900fdff3a0070449800e684540045
:102230000fb897009fb897004fb19700dfb1970094
:10224000820f5000838f580008003a0014c0b3007a
:102250002fb99700bfb997006fb09700ffb09700f4
:10226000800f5100818f59000600320000000000ed
:10227000000000000000000000000000000000005e
:102280000042eb000900e000030032006603430057
:102290000404e000c0ff3a000480fb004f04be00cd
:1022a0000080fa00000006000400fa00400ade0088
:1022b0000500200093018000940188009000ba007e
:1022c000e1bf9f001080ba00f0bf9f004ff8970059
:1022d00000497800dff89700114198006ff89700e7
:1022e00020419800930188000080fa000000060059
:1022f0000208bb000188bb00000006000200fa00d3
:10230000889fbe008a9fbe008c1f780080047800e2
:1023100042c0bf004500de0067006000a0bf9f0014
:1023200094028000ff3ffc0042c0bf007f4060007d
:1023300001ccb3000140700042e0b7009402880075
:102340000002eb00b0b48000040878004018de0002
:1023500001002000020478009c01800090018800a8
:10236000040578000b0420001981fb00194090003f
:102370004800dd0000017100a94090008180fb0051
:10238000e384440008007800d9ff07000884e800cf
:102390000a05e8008b0f5500f3ff3a002fff0700f6
:1023a0009c01880031002000b0b480000108780052
:1023b00092028000ff3ffc00afb89700c508dd0027
:1023c00042c0bf007f4060000140700042e0b700a3
:1023d000920288004f0678004f05be004f04be00f1
:1023e0000080fa0000000600ea874700889fbe00d0
:1023f0008a9fbe008c9fbe008e1f78000006be0024
:102400000205be0042c0bf000080fb004500de00a8
:1024100080bf9f0092028000ff3ffc0042c0bf00cf
:102420007f40600001ccb3000140700042e0b70083
:10243000920288008000eb00b0b4800001087800b0
:1024400001077800e00f5500e08f5d003700320093
:10245000768157000c00be0093ff07006203460020
:10246000e0834e00afe897000180fb004801dd00eb
:1024700061045500e0845d00050032003fe89700ec
:102480000080fb000001710062045500e0845d00e3
:1024900002074700e00f5400e08f5c002300320089
:1024a0004fe897004805dd0061015400e0815c00c1
:1024b0000a003200738157000600be007aff070051
:1024c00064034600e0834e005fe897000080fb0055
:1024d0000005750062015400e0815c000a074700b6
:1024e000e00f5100e08f5900100032006fe89700b4
:1024f0004802dd0061055100e08559000500320009
:102500007fe897000080fb00000272006205510026
:10251000e085590004074700e00f5500e08f5d009b
:10252000020032000606be00c9ff3700310020005d
:10253000b0b480000108780092028000ff3ffc00e8
:102540008fb89700c508dd0042c0bf007f40600023
:102550000140700042e0b700920288000e0078004f
:102560004f0778004f06be004f05be004f04be0067
:10257000af00b100000006000600fa00000278007b
:102580008001eb00050c20000480410066815700ab
:1025900005000900305978006200b1006000b10008
:1025a0002ff897000081fb004811dd003ff89700ed
:1025b0000080fb000001710001014100cff897008d
:1025c000c808dd005ff897000080fb008080700085
:1025d00001014100eff89700c808dd007ff897007f
:1025e0000080fb008080700081004100e681410096
:1025f000858f5100e4ff3a00010078000080fa0066
:10260000000006000001eb0001a52100810f500031
:1026100001003a00120020000200780000000600cd
:10262000f4874700889fbe008a9fbe008c9fbe0033
:102630008e1f7800f0b79f0081bf9f000206be008a
:1026400002602000030020000c00be0068f20200bf
:1026500000000000e0b79f000000eb0080b79f0083
:1026600000998800f0988800d098880002602000c7
:10267000030020000c00be0088f2020000000000f1
:10268000e00f5000e08f5800030032006fb0970059
:102690000000e800e0b79f00efb097000100e00005
:1026a00002003a00d1b79f00640037007fb4970062
:1026b0008fbc97000005eb000800be0075fe070008
:1026c00000402000010020000804400089844800e8
:1026d0000a05e800efb097008a8f5000f6ff3a0035
:1026e0007fb597008fbd97006000b800a0b79f002e
:1026f000b1b79f000044eb0011c0b30081ef9f0011
:102700000001eb0092b79f00d2b79f009fb09700e7
:10271000f19888000804e00042003a000007eb004e
:102720000e9988002fb49700bfb49700080cb00032
:102730000980b000880f5600898f5e0015003e00aa
:102740002fb09700bfb097000001560081815e0056
:1027500080252100d61c02000100000018c0b30033
:102760008fe897000104e00020003200822521005c
:102770009280fb00124090004800dd0080807000d5
:10278000d1b79f0018c0b3000040eb0080ef9f005e
:1027900016003700020c20000300200080252100d5
:1027a000d61c0200010000008fe897000104e00041
:1027b00004003a00a8b79f00b9b79f000144780011
:1027c0000a003700822521009280fb001240900011
:1027d0004800dd0080807000d1b79f00a8b79f003f
:1027e000b9b79f000044eb0088ef9f00d1988000ac
:1027f0008025210060ff0700d09888000a01be00f4
:1028000080252100bdfe07000a08b0000b80b00043
:102810000e07e800e80f5700020032000804e0004d
:10282000bfff32009fb097008100e80091b79f0082
:102830006fb19700810f5100b4ff3a0022002000d1
:102840000300200000fe2f000f004000d61c0200f5
:10285000010000000c01be007fb097008fb8970008
:10286000e1fe070080007800e09888000fb1970033
:10287000c2988800d0988000808f500004003200f9
:102880000000000000000000000000000000000048
:102890000280400005003a005fb0970059ff070032
:1028a0000004e000060032000900370000000000cc
:1028b0000000000000000000000000000040eb00ed
:1028c0000000000000000000000000000000000008
:1028d0000080fb004f0778004f06be004f05be008a
:1028e0004f04be004f01b100000006000004e000ec
:1028f00002003200ec22a80001003700ec22a900ff
:10290000e822a90000000600ff0b090000000000fb
:1029100000000600889fbe0095a0a90085a0a90020
:102920000004eb00081988004819880088198800fd
:1029300000102000201988001819880021e3a80041
:10294000f1ff0700880478002023a800eeff0700ad
:102950002023a90020c3bf000008a300fdff320010
:1029600000188000808444000804e800f00f540040
:10297000f5ff3a000900e0000e0032006148b9009e
:102980008ef20200000000000200200003d82300a5
:10299000e4f20200000000000001be000000200080
:1029a000010224004cf3020000000000309e880069
:1029b000419e88002023ef004f04be000000060067
:1029c0002023ef0020302000401988005000200014
:1029d000101988004002210020198800000e2000f4
:1029e0000019880085a0a90095a0a900aac0bf0071
:1029f0000044a1000046b300aae0b7002043a800ad
:102a000021e3a800800c20000100200076090200cc
:102a1000010000000000060095a0a900509e800063
:102a200095a0a8000000060095a0a900809e800047
:102a300095a0a80000000600889fbe008a1f7800ad
:102a40008c9fbe000006be00020020000310240080
:102a5000e4f2020000000000d0f3020000000000d9
:102a60000004be0000057800cf80de008ef2020078
:102a7000000000000800e00004003d00020020000b
:102a80000378240008f40200000000000200200087
:102a900003e02b00e4f20200000000000001be0091
:102aa0000c00be0008f4020000000000020020003c
:102ab00003d82300c2f40200000000000000e00080
:102ac000010034000a05e8000a0078004f06be0045
:102ad0004f0578004f04be0000000600881f7800f4
:102ae000cdff070000047800cf80de008ef20200e8
:102af000000000000800e00004003d00020020008b
:102b00000378240008f4020000000000329e8000d8
:102b1000439e8000e4f2020000000000d27d2a0003
:102b200083eb23004cf30200000000004f04780008
:102b300000000600881f7800bbff07000004780033
:102b4000cf80de008ef20200000000000800e000ee
:102b500004003d00020020000378240008f4020075
:102b600000000000329e8000439e8000e4f20200dc
:102b700000000000127e2a0083e323004cf30200d1
:102b8000000000004f04780000000600d3ff07009b
:102b9000a9ff070000000600e6ff0700a6ff0700e8
:102ba00000000600889fbe006000b800309e8800cc
:102bb000419e8800a23c21000089be00e23c210029
:102bc0000089be00223d21000089be00623d210037
:102bd0000089be00a23d21000089be00e23d210027
:102be0000089be00ec62a900e442a900e862a900e5
:102bf000e042a9000004eb0098088800900620003d
:102c00007008880013e1a80042ff07006cff07006e
:102c1000009f80000010a000009f88001900200085
:102c2000e99e880008407800740207000840780098
:102c300098020700c0002000d8000700c000200054
:102c400015000700090078004f04be0000000600d0
:102c50000004e00009003a000000eb00d00c8800fe
:102c6000000d8800f10c8800d0002000e00c8800e6
:102c7000a03fb000d00c8800060037000000eb0039
:102c8000800c8800b00c8800a10c8800d0002000c7
:102c9000900c880000000600881f7800000478006f
:102ca000cf80de008ef20200000000000800e0008d
:102cb00004003d00020020000378240008f4020014
:102cc000000000000200200003e02300e4f2020004
:102cd0000000000057000700100020004f0478009b
:102ce00000000600889fbe008a1f78008c9fbe00ef
:102cf00000047800cf80de008ef2020000000000a9
:102d00000800e00004003d000200200003782400d9
:102d100008f40200000000000200200003e023008d
:102d2000e4f20200000000000006be0041000700bf
:102d300070402000800c8800009f80000070a00080
:102d4000009f8800801a26000100200076090200fa
:102d5000010000008040eb004ac6b30013003700ba
:102d600074ff07000004be008bff0700408188004d
:102d70000c01be000800be0006f4020000000000c6
:102d800001f0a10082eb210053e82300c6f4020009
:102d9000000000000000e00002003d0011c0b30090
:102da00002003700000000008040eb000a45e90007
:102db000020032000104e000e9ff3200009f8000c1
:102dc0000070a100009f88009021ef000180fb00af
:102dd0004f06be004f0578004f04be0000000600fd
:102de000889fbe000004be001200070051ff0700cc
:102df0000801be0006f402000000000001f0a1007e
:102e000082eb210053e82300c6f40200000000001a
:102e10000000e00002003d0010c0b30002003700d7
:102e2000000000000040eb000080fb004f04be00eb
:102e300000000600889fbe008a9fbe008c1f78009d
:102e40000005be0095a0a900aac0bf000044a100d3
:102e50000046b300aae0b700009f8000f1e52f0014
:102e600001006000009f880002002000031624007b
:102e70000a00be00c2f40200000000000000e000f2
:102e8000040034000046eb000a0020000b1624006a
:102e90000f0037006011b8000a00be00c6f402003f
:102ea000000000001cc0b3000000e00008003a0071
:102eb0009021ef0011002000009f80000068a30017
:102ec0003100320095a0a800110020002e0037002c
:102ed00095a0a900693c21003233230033f323007d
:102ee0000a00be00e4f2020000000000127e2a0088
:102ef00083e32300e4f20200000000001901be0099
:102f00004cf3020000000000d0f3020000000000bb
:102f1000909e88000000eb00a09e880058052000cd
:102f2000d89e8800127e2a0083e323000a00be0098
:102f3000e4f20200000000001901be004cf30200a0
:102f400000000000020020000308240008f4020032
:102f500000000000d0f3020000000000b09e8800d6
:102f600068005000c09e88008800780010c0b30040
:102f700037ff0700009f80000080a000009f8800ae
:102f800095a0a8008c80fb00010078004f06780017
:102f90004f05be004f04be0000000600889fbe0023
:102fa0008a9fbe0000047800cf80de008ef202000f
:102fb000000000000800e00004003d0002002000c6
:102fc0000378240008f40200000000000200200042
:102fd00003e02300e4f20200000000000004be0051
:102fe0002d000700bdfe07000005be00e7fe07003c
:102ff00060818800508188000801be000a00be0080
:1030000006f402000000000001f0a100a2702d00f3
:1030100033e22300c6f40200000000000000e000dc
:1030200002003d0010c0b3000200370000000000a5
:103030000040eb000080fb004f05be004f04be00c7
:1030400000000600889fbe000004be0012000700ba
:10305000a2fe07000801be0006f402000000000006
:1030600001f0a100a2702d0033e22300c6f402009b
:10307000000000000000e00002003d0010c0b300ae
:1030800002003700000000000040eb000080fb0061
:103090004f04be0000000600889fbe008a9fbe004d
:1030a0008c1f78000004be0095a0a900009f80003e
:1030b0000060a100009f88006011b8000800be00f9
:1030c000c6f40200000000000000e00003003a0027
:1030d0009a21ef001000200040003700020020007d
:1030e000030a24000800be00c2f402000000000031
:1030f0000000e000040034000046eb00080020005f
:10310000090a2400010037001cc0b3000805be00f6
:10311000a299290093f523000800be00e4f2020002
:10312000000000000004be00a2702d00330824003f
:10313000c2f40200000000000000e00002003400c1
:10314000a8702d0039082400d27d2a0083eb2300cb
:103150000800be00e4f2020000000000329e800081
:10316000439e80004cf3020000000000d0f30200f8
:1031700000000000609e88000004eb00789e88003c
:10318000f2282c0053d723000a00be004cf30200a3
:10319000000000000200200003f0230008f40200f9
:1031a00000000000d0f30200000000008000780062
:1031b00008407800a6fe0700009f80000060a00085
:1031c000009f880095a0a800007122000100200047
:1031d00076090200010000000c80fb004f06780019
:1031e0004f05be004f04be00000006001000200086
:1031f000000006001000200000000600889fbe00ae
:1032000080047800009f80000018a30007003a00a7
:103210000038a3000f003a000090a000009f880033
:10322000fdfd07004a0107000a003700e4e2a8009c
:10323000e462a800a08180000008a3000a003a0010
:10324000e38f540003003200000020000109240035
:103250007cff0700a08180000008a30002003a0064
:10326000e38f540003003a000d010700004478008a
:10327000030037008081800087fe0700004478004b
:103280000804e0000600320011c6b3000040eb0065
:103290002208020001000000e99e880002003700b9
:1032a00010002000e09e88000880fb004f04be0054
:1032b00000000600009f80006a006000e80f5000d8
:1032c000060032000040eb00f2000700e4e2a80034
:1032d000e462a80010002000e09e8800009f8000ab
:1032e0000048a3000500320011c0b300014078007f
:1032f00022080200010000000400370011c4b300de
:1033000010c0b30022080200010000000000060007
:10331000881f780000047800e09e80008008780014
:103320000800e0000e0032000040eb00b300070090
:10333000e10f54000a003200a08180000008a300c1
:1033400002003a00e30f540002003a00d4000700e4
:1033500004003700808180004ffe07000100370025
:1033600010c0b3000080fb004f047800000006008e
:1033700042002000f10f2000202521002cf2020045
:103380000000000000000600881f7800c003200035
:10339000aa0c0200010000000004e0000700320057
:1033a000009f80000018a30004003200909280006b
:1033b0008040eb000008a30030003a00ca0007007c
:1033c0007a0802000100000001c2b300014460005d
:1033d0000040eb002208020001000000a0928000e3
:1033e00070818800009f80002020b3000030a10081
:1033f000000178000240a100029f8800f182800055
:103400000100a100f1828800909280000008a300d2
:1034100006003200020078000010a1000170a00038
:10342000f18288000030a000009f88009092800008
:103430000028a30003003200009f80000040a0008d
:10344000009f8800909280000038a30003003200a3
:10345000f08280000000a000f082880011c0b3005c
:103460000804e00005003a0001c2b3000040eb0090
:10347000220802000100000011c0b3000180fb001f
:103480004f04780000000600100020000000060035
:103490000000060000000600000006000000060014
:1034a0003600f800809fbe00829fbe00849fbe0051
:1034b000869fbe00889fbe000200fa0042c0bf0087
:1034c0004500de0067006000f0bf9f0092028000b0
:1034d000ff3ffc0042c0bf007f40600001ccb30052
:1034e0000140700042e0b700920288000002eb0049
:1034f000b0b4800004087800a901800020002000fa
:10350000a001880085a0a90000188000509e8800b6
:1035100013188000839e8800029f8000820078003c
:10352000010ab20000082000808f50000b003a0012
:10353000b09e8000808f510001003600840c88000e
:10354000c09e8000808f5100040031009001e20095
:1035500002003a0070402000800c88006204610084
:1035600011003a00c0032000aa0c02000100000074
:103570000004e0000c003200519e8000609e80003c
:10358000808f50000800310008017800710420008d
:10359000080078008a0a02000100000020002000d4
:1035a0001e0d020001000000a9018800310020006a
:1035b000b0b480000108780092028000ff3ffc0058
:1035c000ffb89700c508dd0042c0bf007f40600023
:1035d0000140700042e0b700920288000080fa00cb
:1035e0004f04be004f03be004f02be004f01be009d
:1035f0004f00be003600f900004006000004e00065
:103600000f003200019f80000188a30009003200f2
:1036100070402000800c8800010078000070a0003d
:10362000009f8800801a2600010020007609020011
:1036300001000000e4c2a900e4a2a80010003700c5
:10364000009f8000800078000102b2000a003a006a
:103650000070a100009f8800810c8800e4c2a800cf
:1036600080b5210001002000760902000100000061
:10367000e4a2a90002003700e4a2a900e4c2a80065
:1036800000000600e4c2bf004500de0061006000eb
:1036900000000600000006003cfd070000000600d8
:1036a000009f80000050a000800078000180a100f1
:1036b000019f880012c0b3000018a300030032006d
:1036c00032fd070035fe070000417800aac0bf00a8
:1036d000f1c8b300014060000045b300aae0b700a4
:1036e0000280fb0000000600c0032000aa0c0200bc
:1036f000010000000041eb00613c2100825898006d
:103700000004e000100032000001eb00c1032000c3
:10371000100020008a0a0200010000000000eb00f7
:103720008208020001000000300020001e0d02008f
:10373000010000000001eb00d1032000020078002e
:103740008a0a0200010000000000060000000600d6
:10375000889fbe0000047800c0032000aa0c02006d
:10376000010000008044780090042000aa0c0200b0
:10377000010000000004e00044003a00800920003d
:10378000800f540004003e00009f80000018a3003a
:103790001600320032003700683c2100009f800094
:1037a0000018a300110032000904e00037003a00bd
:1037b000085890000041eb00e54f50002d003a0002
:1037c0000001eb00c1032000020078008a0a020019
:1037d000010000000000eb00820802000100000070
:1037e000095c980012c0b300220037008000780006
:1037f0002120b20000202000808f500023003a00da
:10380000100020008208020001000000708180008a
:10381000e2fd070010c0b300100802000100000024
:10382000dafc0700608188000001eb00c103200082
:10383000020078008a0a020001000000009f800058
:103840000090a100009f88000001eb00d103200040
:10385000020078008a0a0200010000000b00370015
:10386000a1ff07008040eb00603c21000158980058
:1038700006003700613c2100015890000040e8003c
:10388000805898000204e000efff3a004f04be00a9
:103890000000060060fc0700adff07000000060006
:1038a0002174200062042000730520008248780003
:1038b0008348780042c7a900000006002174200058
:1038c0006204200073052000824878008348780055
:1038d00042c7a80000000600f1ff0700cac6bf00eb
:1038e00001ccb300014060003040b300cae6b7002d
:1038f000a4c6bf00014060001041b300a4e6b700b9
:10390000d9c6bf00014060007040b300d9e6b700df
:10391000d7c6bf00014060000034a000d7e6b70062
:10392000a8c6bf00014060006041b300a8e6b70030
:10393000a9c6bf00014060007041b300a9e6b7000e
:10394000cbc6bf0001406000a040b300cbe6b7008b
:10395000c2c6bf0001406000b040b300c2e6b7007d
:10396000acc6bf0001406000c040b300ace6b70089
:10397000d2c6bf00014060002041b300d2e6b700cc
:10398000dcc6bf00014060003041b300dce6b70098
:10399000caff0700000006008b0107000000e000de
:1039a000010032001000200000000600881f78008f
:1039b0008a9fbe00000478000205be00a501070032
:1039c0000a044400080078004f05be004f04780048
:1039d000000006000200fa00120020000300200090
:1039e0000f80e9009b010700eff897000180fb00c2
:1039f0000080fa00000006000185200014c0b3001a
:103a0000844878006011b80092428800a342880080
:103a10000040eb00a0489800b0489800c0489800cb
:103a2000d4489800b2428800c342880000000600d3
:103a30000000eb0000458800400020001045880091
:103a4000000006001800fa00426120008000eb0030
:103a5000008a20002cf2020000000000e6ff0700b0
:103a6000f3ff0700006a2100104278008001eb009c
:103a70004567210063c17a00838041000280fb001a
:103a80007883570000b378000204e00001003200a0
:103a90000442e8008301e800ec8f5100f5ff3a0092
:103aa000006a21000448780012280200010000008a
:103ab000788057002a28020001000000c06a210017
:103ac0003835020001000000c06a210011c0b300b7
